{
	"task2/BeggingContract.sol": {
		"BeggingContract": {
			"abi": [
				{
					"inputs": [
						{
							"internalType": "uint256",
							"name": "_durationHours",
							"type": "uint256"
						}
					],
					"stateMutability": "nonpayable",
					"type": "constructor"
				},
				{
					"anonymous": false,
					"inputs": [
						{
							"indexed": true,
							"internalType": "address",
							"name": "donator",
							"type": "address"
						},
						{
							"indexed": false,
							"internalType": "uint256",
							"name": "amount",
							"type": "uint256"
						},
						{
							"indexed": false,
							"internalType": "uint256",
							"name": "timestamp",
							"type": "uint256"
						}
					],
					"name": "Donation",
					"type": "event"
				},
				{
					"inputs": [],
					"name": "donate",
					"outputs": [],
					"stateMutability": "payable",
					"type": "function"
				},
				{
					"inputs": [],
					"name": "donationEndTime",
					"outputs": [
						{
							"internalType": "uint256",
							"name": "",
							"type": "uint256"
						}
					],
					"stateMutability": "view",
					"type": "function"
				},
				{
					"inputs": [],
					"name": "donationStartTime",
					"outputs": [
						{
							"internalType": "uint256",
							"name": "",
							"type": "uint256"
						}
					],
					"stateMutability": "view",
					"type": "function"
				},
				{
					"inputs": [
						{
							"internalType": "address",
							"name": "donor",
							"type": "address"
						}
					],
					"name": "getDonation",
					"outputs": [
						{
							"internalType": "uint256",
							"name": "",
							"type": "uint256"
						}
					],
					"stateMutability": "view",
					"type": "function"
				},
				{
					"inputs": [],
					"name": "owner",
					"outputs": [
						{
							"internalType": "address",
							"name": "",
							"type": "address"
						}
					],
					"stateMutability": "view",
					"type": "function"
				},
				{
					"inputs": [
						{
							"internalType": "uint256",
							"name": "",
							"type": "uint256"
						}
					],
					"name": "top3Donors",
					"outputs": [
						{
							"internalType": "address",
							"name": "donor",
							"type": "address"
						},
						{
							"internalType": "uint256",
							"name": "amount",
							"type": "uint256"
						}
					],
					"stateMutability": "view",
					"type": "function"
				},
				{
					"inputs": [],
					"name": "totalDonatedAmount",
					"outputs": [
						{
							"internalType": "uint256",
							"name": "",
							"type": "uint256"
						}
					],
					"stateMutability": "view",
					"type": "function"
				},
				{
					"inputs": [],
					"name": "withdraw",
					"outputs": [],
					"stateMutability": "payable",
					"type": "function"
				},
				{
					"stateMutability": "payable",
					"type": "receive"
				}
			],
			"devdoc": {
				"kind": "dev",
				"methods": {},
				"version": 1
			},
			"evm": {
				"assembly": "    /* \"task2/BeggingContract.sol\":55:2731  contract BeggingContract {... */\n  mstore(0x40, 0x80)\n    /* \"task2/BeggingContract.sol\":500:688  constructor(uint256 _durationHours) {... */\n  callvalue\n  dup1\n  iszero\n  tag_1\n  jumpi\n  revert(0x00, 0x00)\ntag_1:\n  pop\n  mload(0x40)\n  sub(codesize, bytecodeSize)\n  dup1\n  bytecodeSize\n  dup4\n  codecopy\n  dup2\n  dup2\n  add\n  0x40\n  mstore\n  dup2\n  add\n  swap1\n  tag_2\n  swap2\n  swap1\n  tag_3\n  jump\t// in\ntag_2:\n    /* \"task2/BeggingContract.sol\":554:564  msg.sender */\n  caller\n    /* \"task2/BeggingContract.sol\":546:551  owner */\n  0x00\n  0x00\n    /* \"task2/BeggingContract.sol\":546:564  owner = msg.sender */\n  0x0100\n  exp\n  dup2\n  sload\n  dup2\n  0xffffffffffffffffffffffffffffffffffffffff\n  mul\n  not\n  and\n  swap1\n  dup4\n  0xffffffffffffffffffffffffffffffffffffffff\n  and\n  mul\n  or\n  swap1\n  sstore\n  pop\n    /* \"task2/BeggingContract.sol\":594:609  block.timestamp */\n  timestamp\n    /* \"task2/BeggingContract.sol\":574:591  donationStartTime */\n  0x03\n    /* \"task2/BeggingContract.sol\":574:609  donationStartTime = block.timestamp */\n  dup2\n  swap1\n  sstore\n  pop\n    /* \"task2/BeggingContract.sol\":674:681  1 hours */\n  0x0e10\n    /* \"task2/BeggingContract.sol\":657:671  _durationHours */\n  dup2\n    /* \"task2/BeggingContract.sol\":657:681  _durationHours * 1 hours */\n  tag_6\n  swap2\n  swap1\n  tag_7\n  jump\t// in\ntag_6:\n    /* \"task2/BeggingContract.sol\":637:654  donationStartTime */\n  sload(0x03)\n    /* \"task2/BeggingContract.sol\":637:681  donationStartTime + _durationHours * 1 hours */\n  tag_8\n  swap2\n  swap1\n  tag_9\n  jump\t// in\ntag_8:\n    /* \"task2/BeggingContract.sol\":619:634  donationEndTime */\n  0x04\n    /* \"task2/BeggingContract.sol\":619:681  donationEndTime = donationStartTime + _durationHours * 1 hours */\n  dup2\n  swap1\n  sstore\n  pop\n    /* \"task2/BeggingContract.sol\":500:688  constructor(uint256 _durationHours) {... */\n  pop\n    /* \"task2/BeggingContract.sol\":55:2731  contract BeggingContract {... */\n  jump(tag_10)\n    /* \"#utility.yul\":88:205   */\ntag_12:\n    /* \"#utility.yul\":197:198   */\n  0x00\n    /* \"#utility.yul\":194:195   */\n  0x00\n    /* \"#utility.yul\":187:199   */\n  revert\n    /* \"#utility.yul\":334:411   */\ntag_14:\n    /* \"#utility.yul\":371:378   */\n  0x00\n    /* \"#utility.yul\":400:405   */\n  dup2\n    /* \"#utility.yul\":389:405   */\n  swap1\n  pop\n    /* \"#utility.yul\":334:411   */\n  swap2\n  swap1\n  pop\n  jump\t// out\n    /* \"#utility.yul\":417:539   */\ntag_15:\n    /* \"#utility.yul\":490:514   */\n  tag_24\n    /* \"#utility.yul\":508:513   */\n  dup2\n    /* \"#utility.yul\":490:514   */\n  tag_14\n  jump\t// in\ntag_24:\n    /* \"#utility.yul\":483:488   */\n  dup2\n    /* \"#utility.yul\":480:515   */\n  eq\n    /* \"#utility.yul\":470:533   */\n  tag_25\n  jumpi\n    /* \"#utility.yul\":529:530   */\n  0x00\n    /* \"#utility.yul\":526:527   */\n  0x00\n    /* \"#utility.yul\":519:531   */\n  revert\n    /* \"#utility.yul\":470:533   */\ntag_25:\n    /* \"#utility.yul\":417:539   */\n  pop\n  jump\t// out\n    /* \"#utility.yul\":545:688   */\ntag_16:\n    /* \"#utility.yul\":602:607   */\n  0x00\n    /* \"#utility.yul\":633:639   */\n  dup2\n    /* \"#utility.yul\":627:640   */\n  mload\n    /* \"#utility.yul\":618:640   */\n  swap1\n  pop\n    /* \"#utility.yul\":649:682   */\n  tag_27\n    /* \"#utility.yul\":676:681   */\n  dup2\n    /* \"#utility.yul\":649:682   */\n  tag_15\n  jump\t// in\ntag_27:\n    /* \"#utility.yul\":545:688   */\n  swap3\n  swap2\n  pop\n  pop\n  jump\t// out\n    /* \"#utility.yul\":694:1045   */\ntag_3:\n    /* \"#utility.yul\":764:770   */\n  0x00\n    /* \"#utility.yul\":813:815   */\n  0x20\n    /* \"#utility.yul\":801:810   */\n  dup3\n    /* \"#utility.yul\":792:799   */\n  dup5\n    /* \"#utility.yul\":788:811   */\n  sub\n    /* \"#utility.yul\":784:816   */\n  slt\n    /* \"#utility.yul\":781:900   */\n  iszero\n  tag_29\n  jumpi\n    /* \"#utility.yul\":819:898   */\n  tag_30\n  tag_12\n  jump\t// in\ntag_30:\n    /* \"#utility.yul\":781:900   */\ntag_29:\n    /* \"#utility.yul\":939:940   */\n  0x00\n    /* \"#utility.yul\":964:1028   */\n  tag_31\n    /* \"#utility.yul\":1020:1027   */\n  dup5\n    /* \"#utility.yul\":1011:1017   */\n  dup3\n    /* \"#utility.yul\":1000:1009   */\n  dup6\n    /* \"#utility.yul\":996:1018   */\n  add\n    /* \"#utility.yul\":964:1028   */\n  tag_16\n  jump\t// in\ntag_31:\n    /* \"#utility.yul\":954:1028   */\n  swap2\n  pop\n    /* \"#utility.yul\":910:1038   */\n  pop\n    /* \"#utility.yul\":694:1045   */\n  swap3\n  swap2\n  pop\n  pop\n  jump\t// out\n    /* \"#utility.yul\":1051:1231   */\ntag_17:\n    /* \"#utility.yul\":1099:1176   */\n  0x4e487b7100000000000000000000000000000000000000000000000000000000\n    /* \"#utility.yul\":1096:1097   */\n  0x00\n    /* \"#utility.yul\":1089:1177   */\n  mstore\n    /* \"#utility.yul\":1196:1200   */\n  0x11\n    /* \"#utility.yul\":1193:1194   */\n  0x04\n    /* \"#utility.yul\":1186:1201   */\n  mstore\n    /* \"#utility.yul\":1220:1224   */\n  0x24\n    /* \"#utility.yul\":1217:1218   */\n  0x00\n    /* \"#utility.yul\":1210:1225   */\n  revert\n    /* \"#utility.yul\":1237:1647   */\ntag_7:\n    /* \"#utility.yul\":1277:1284   */\n  0x00\n    /* \"#utility.yul\":1300:1320   */\n  tag_34\n    /* \"#utility.yul\":1318:1319   */\n  dup3\n    /* \"#utility.yul\":1300:1320   */\n  tag_14\n  jump\t// in\ntag_34:\n    /* \"#utility.yul\":1295:1320   */\n  swap2\n  pop\n    /* \"#utility.yul\":1334:1354   */\n  tag_35\n    /* \"#utility.yul\":1352:1353   */\n  dup4\n    /* \"#utility.yul\":1334:1354   */\n  tag_14\n  jump\t// in\ntag_35:\n    /* \"#utility.yul\":1329:1354   */\n  swap3\n  pop\n    /* \"#utility.yul\":1389:1390   */\n  dup3\n    /* \"#utility.yul\":1386:1387   */\n  dup3\n    /* \"#utility.yul\":1382:1391   */\n  mul\n    /* \"#utility.yul\":1411:1441   */\n  tag_36\n    /* \"#utility.yul\":1429:1440   */\n  dup2\n    /* \"#utility.yul\":1411:1441   */\n  tag_14\n  jump\t// in\ntag_36:\n    /* \"#utility.yul\":1400:1441   */\n  swap2\n  pop\n    /* \"#utility.yul\":1590:1591   */\n  dup3\n    /* \"#utility.yul\":1581:1588   */\n  dup3\n    /* \"#utility.yul\":1577:1592   */\n  div\n    /* \"#utility.yul\":1574:1575   */\n  dup5\n    /* \"#utility.yul\":1571:1593   */\n  eq\n    /* \"#utility.yul\":1551:1552   */\n  dup4\n    /* \"#utility.yul\":1544:1553   */\n  iszero\n    /* \"#utility.yul\":1524:1607   */\n  or\n    /* \"#utility.yul\":1501:1640   */\n  tag_37\n  jumpi\n    /* \"#utility.yul\":1620:1638   */\n  tag_38\n  tag_17\n  jump\t// in\ntag_38:\n    /* \"#utility.yul\":1501:1640   */\ntag_37:\n    /* \"#utility.yul\":1285:1647   */\n  pop\n    /* \"#utility.yul\":1237:1647   */\n  swap3\n  swap2\n  pop\n  pop\n  jump\t// out\n    /* \"#utility.yul\":1653:1844   */\ntag_9:\n    /* \"#utility.yul\":1693:1696   */\n  0x00\n    /* \"#utility.yul\":1712:1732   */\n  tag_40\n    /* \"#utility.yul\":1730:1731   */\n  dup3\n    /* \"#utility.yul\":1712:1732   */\n  tag_14\n  jump\t// in\ntag_40:\n    /* \"#utility.yul\":1707:1732   */\n  swap2\n  pop\n    /* \"#utility.yul\":1746:1766   */\n  tag_41\n    /* \"#utility.yul\":1764:1765   */\n  dup4\n    /* \"#utility.yul\":1746:1766   */\n  tag_14\n  jump\t// in\ntag_41:\n    /* \"#utility.yul\":1741:1766   */\n  swap3\n  pop\n    /* \"#utility.yul\":1789:1790   */\n  dup3\n    /* \"#utility.yul\":1786:1787   */\n  dup3\n    /* \"#utility.yul\":1782:1791   */\n  add\n    /* \"#utility.yul\":1775:1791   */\n  swap1\n  pop\n    /* \"#utility.yul\":1810:1813   */\n  dup1\n    /* \"#utility.yul\":1807:1808   */\n  dup3\n    /* \"#utility.yul\":1804:1814   */\n  gt\n    /* \"#utility.yul\":1801:1837   */\n  iszero\n  tag_42\n  jumpi\n    /* \"#utility.yul\":1817:1835   */\n  tag_43\n  tag_17\n  jump\t// in\ntag_43:\n    /* \"#utility.yul\":1801:1837   */\ntag_42:\n    /* \"#utility.yul\":1653:1844   */\n  swap3\n  swap2\n  pop\n  pop\n  jump\t// out\n    /* \"task2/BeggingContract.sol\":55:2731  contract BeggingContract {... */\ntag_10:\n  dataSize(sub_0)\n  dup1\n  dataOffset(sub_0)\n  0x00\n  codecopy\n  0x00\n  return\nstop\n\nsub_0: assembly {\n        /* \"task2/BeggingContract.sol\":55:2731  contract BeggingContract {... */\n      mstore(0x40, 0x80)\n      jumpi(tag_1, lt(calldatasize, 0x04))\n      shr(0xe0, calldataload(0x00))\n      dup1\n      0x835b6b82\n      gt\n      tag_11\n      jumpi\n      dup1\n      0x835b6b82\n      eq\n      tag_7\n      jumpi\n      dup1\n      0x8da5cb5b\n      eq\n      tag_8\n      jumpi\n      dup1\n      0xed88c68e\n      eq\n      tag_9\n      jumpi\n      dup1\n      0xf12a4a53\n      eq\n      tag_10\n      jumpi\n      jump(tag_2)\n    tag_11:\n      dup1\n      0x20fa44cd\n      eq\n      tag_3\n      jumpi\n      dup1\n      0x3ccfd60b\n      eq\n      tag_4\n      jumpi\n      dup1\n      0x410a1d32\n      eq\n      tag_5\n      jumpi\n      dup1\n      0x78331552\n      eq\n      tag_6\n      jumpi\n      jump(tag_2)\n    tag_1:\n      jumpi(tag_2, calldatasize)\n        /* \"task2/BeggingContract.sol\":2714:2722  donate() */\n      tag_14\n        /* \"task2/BeggingContract.sol\":2714:2720  donate */\n      tag_15\n        /* \"task2/BeggingContract.sol\":2714:2722  donate() */\n      jump\t// in\n    tag_14:\n        /* \"task2/BeggingContract.sol\":55:2731  contract BeggingContract {... */\n      stop\n    tag_2:\n      revert(0x00, 0x00)\n        /* \"task2/BeggingContract.sol\":194:227  uint256 public totalDonatedAmount */\n    tag_3:\n      callvalue\n      dup1\n      iszero\n      tag_16\n      jumpi\n      revert(0x00, 0x00)\n    tag_16:\n      pop\n      tag_17\n      tag_18\n      jump\t// in\n    tag_17:\n      mload(0x40)\n      tag_19\n      swap2\n      swap1\n      tag_20\n      jump\t// in\n    tag_19:\n      mload(0x40)\n      dup1\n      swap2\n      sub\n      swap1\n      return\n        /* \"task2/BeggingContract.sol\":2442:2646  function withdraw() public payable onlyOwner {... */\n    tag_4:\n      tag_21\n      tag_22\n      jump\t// in\n    tag_21:\n      stop\n        /* \"task2/BeggingContract.sol\":2235:2341  function getDonation(address donor) public view returns (uint256) {... */\n    tag_5:\n      callvalue\n      dup1\n      iszero\n      tag_23\n      jumpi\n      revert(0x00, 0x00)\n    tag_23:\n      pop\n      tag_24\n      0x04\n      dup1\n      calldatasize\n      sub\n      dup2\n      add\n      swap1\n      tag_25\n      swap2\n      swap1\n      tag_26\n      jump\t// in\n    tag_25:\n      tag_27\n      jump\t// in\n    tag_24:\n      mload(0x40)\n      tag_28\n      swap2\n      swap1\n      tag_20\n      jump\t// in\n    tag_28:\n      mload(0x40)\n      dup1\n      swap2\n      sub\n      swap1\n      return\n        /* \"task2/BeggingContract.sol\":314:346  uint256 public donationStartTime */\n    tag_6:\n      callvalue\n      dup1\n      iszero\n      tag_29\n      jumpi\n      revert(0x00, 0x00)\n    tag_29:\n      pop\n      tag_30\n      tag_31\n      jump\t// in\n    tag_30:\n      mload(0x40)\n      tag_32\n      swap2\n      swap1\n      tag_20\n      jump\t// in\n    tag_32:\n      mload(0x40)\n      dup1\n      swap2\n      sub\n      swap1\n      return\n        /* \"task2/BeggingContract.sol\":465:493  TopDonor[] public top3Donors */\n    tag_7:\n      callvalue\n      dup1\n      iszero\n      tag_33\n      jumpi\n      revert(0x00, 0x00)\n    tag_33:\n      pop\n      tag_34\n      0x04\n      dup1\n      calldatasize\n      sub\n      dup2\n      add\n      swap1\n      tag_35\n      swap2\n      swap1\n      tag_36\n      jump\t// in\n    tag_35:\n      tag_37\n      jump\t// in\n    tag_34:\n      mload(0x40)\n      tag_38\n      swap3\n      swap2\n      swap1\n      tag_39\n      jump\t// in\n    tag_38:\n      mload(0x40)\n      dup1\n      swap2\n      sub\n      swap1\n      return\n        /* \"task2/BeggingContract.sol\":86:106  address public owner */\n    tag_8:\n      callvalue\n      dup1\n      iszero\n      tag_40\n      jumpi\n      revert(0x00, 0x00)\n    tag_40:\n      pop\n      tag_41\n      tag_42\n      jump\t// in\n    tag_41:\n      mload(0x40)\n      tag_43\n      swap2\n      swap1\n      tag_44\n      jump\t// in\n    tag_43:\n      mload(0x40)\n      dup1\n      swap2\n      sub\n      swap1\n      return\n        /* \"task2/BeggingContract.sol\":717:1304  function donate() public payable {... */\n    tag_9:\n      tag_45\n      tag_15\n      jump\t// in\n    tag_45:\n      stop\n        /* \"task2/BeggingContract.sol\":352:382  uint256 public donationEndTime */\n    tag_10:\n      callvalue\n      dup1\n      iszero\n      tag_46\n      jumpi\n      revert(0x00, 0x00)\n    tag_46:\n      pop\n      tag_47\n      tag_48\n      jump\t// in\n    tag_47:\n      mload(0x40)\n      tag_49\n      swap2\n      swap1\n      tag_20\n      jump\t// in\n    tag_49:\n      mload(0x40)\n      dup1\n      swap2\n      sub\n      swap1\n      return\n        /* \"task2/BeggingContract.sol\":717:1304  function donate() public payable {... */\n    tag_15:\n        /* \"task2/BeggingContract.sol\":786:803  donationStartTime */\n      sload(0x03)\n        /* \"task2/BeggingContract.sol\":768:783  block.timestamp */\n      timestamp\n        /* \"task2/BeggingContract.sol\":768:803  block.timestamp > donationStartTime */\n      gt\n        /* \"task2/BeggingContract.sol\":760:831  require(block.timestamp > donationStartTime, \"Donation is not started\") */\n      tag_51\n      jumpi\n      mload(0x40)\n      0x08c379a000000000000000000000000000000000000000000000000000000000\n      dup2\n      mstore\n      0x04\n      add\n      tag_52\n      swap1\n      tag_53\n      jump\t// in\n    tag_52:\n      mload(0x40)\n      dup1\n      swap2\n      sub\n      swap1\n      revert\n    tag_51:\n        /* \"task2/BeggingContract.sol\":867:884  donationStartTime */\n      sload(0x03)\n        /* \"task2/BeggingContract.sol\":849:864  block.timestamp */\n      timestamp\n        /* \"task2/BeggingContract.sol\":849:884  block.timestamp > donationStartTime */\n      gt\n        /* \"task2/BeggingContract.sol\":849:921  block.timestamp > donationStartTime && block.timestamp < donationEndTime */\n      dup1\n      iszero\n      tag_54\n      jumpi\n      pop\n        /* \"task2/BeggingContract.sol\":906:921  donationEndTime */\n      sload(0x04)\n        /* \"task2/BeggingContract.sol\":888:903  block.timestamp */\n      timestamp\n        /* \"task2/BeggingContract.sol\":888:921  block.timestamp < donationEndTime */\n      lt\n        /* \"task2/BeggingContract.sol\":849:921  block.timestamp > donationStartTime && block.timestamp < donationEndTime */\n    tag_54:\n        /* \"task2/BeggingContract.sol\":841:949  require(block.timestamp > donationStartTime && block.timestamp < donationEndTime, \"Donation period is over\") */\n      tag_55\n      jumpi\n      mload(0x40)\n      0x08c379a000000000000000000000000000000000000000000000000000000000\n      dup2\n      mstore\n      0x04\n      add\n      tag_56\n      swap1\n      tag_57\n      jump\t// in\n    tag_56:\n      mload(0x40)\n      dup1\n      swap2\n      sub\n      swap1\n      revert\n    tag_55:\n        /* \"task2/BeggingContract.sol\":979:980  0 */\n      0x00\n        /* \"task2/BeggingContract.sol\":967:976  msg.value */\n      callvalue\n        /* \"task2/BeggingContract.sol\":967:980  msg.value > 0 */\n      gt\n        /* \"task2/BeggingContract.sol\":959:1023  require(msg.value > 0, \"Donation amount must be greater than 0\") */\n      tag_58\n      jumpi\n      mload(0x40)\n      0x08c379a000000000000000000000000000000000000000000000000000000000\n      dup2\n      mstore\n      0x04\n      add\n      tag_59\n      swap1\n      tag_60\n      jump\t// in\n    tag_59:\n      mload(0x40)\n      dup1\n      swap2\n      sub\n      swap1\n      revert\n    tag_58:\n        /* \"task2/BeggingContract.sol\":1033:1048  address donator */\n      0x00\n        /* \"task2/BeggingContract.sol\":1051:1061  msg.sender */\n      caller\n        /* \"task2/BeggingContract.sol\":1033:1061  address donator = msg.sender */\n      swap1\n      pop\n        /* \"task2/BeggingContract.sol\":1093:1102  msg.value */\n      callvalue\n        /* \"task2/BeggingContract.sol\":1071:1080  donations */\n      0x01\n        /* \"task2/BeggingContract.sol\":1071:1089  donations[donator] */\n      0x00\n        /* \"task2/BeggingContract.sol\":1081:1088  donator */\n      dup4\n        /* \"task2/BeggingContract.sol\":1071:1089  donations[donator] */\n      0xffffffffffffffffffffffffffffffffffffffff\n      and\n      0xffffffffffffffffffffffffffffffffffffffff\n      and\n      dup2\n      mstore\n      0x20\n      add\n      swap1\n      dup2\n      mstore\n      0x20\n      add\n      0x00\n      keccak256\n      0x00\n        /* \"task2/BeggingContract.sol\":1071:1102  donations[donator] += msg.value */\n      dup3\n      dup3\n      sload\n      tag_61\n      swap2\n      swap1\n      tag_62\n      jump\t// in\n    tag_61:\n      swap3\n      pop\n      pop\n      dup2\n      swap1\n      sstore\n      pop\n        /* \"task2/BeggingContract.sol\":1134:1143  msg.value */\n      callvalue\n        /* \"task2/BeggingContract.sol\":1112:1130  totalDonatedAmount */\n      0x02\n      0x00\n        /* \"task2/BeggingContract.sol\":1112:1143  totalDonatedAmount += msg.value */\n      dup3\n      dup3\n      sload\n      tag_63\n      swap2\n      swap1\n      tag_62\n      jump\t// in\n    tag_63:\n      swap3\n      pop\n      pop\n      dup2\n      swap1\n      sstore\n      pop\n        /* \"task2/BeggingContract.sol\":1167:1174  donator */\n      dup1\n        /* \"task2/BeggingContract.sol\":1158:1203  Donation(donator, msg.value, block.timestamp) */\n      0xffffffffffffffffffffffffffffffffffffffff\n      and\n      0x106aac375bbcf013d1e52338bbf9e740009a1a3a6869f8daa1b72aa1620f5fec\n        /* \"task2/BeggingContract.sol\":1176:1185  msg.value */\n      callvalue\n        /* \"task2/BeggingContract.sol\":1187:1202  block.timestamp */\n      timestamp\n        /* \"task2/BeggingContract.sol\":1158:1203  Donation(donator, msg.value, block.timestamp) */\n      mload(0x40)\n      tag_64\n      swap3\n      swap2\n      swap1\n      tag_65\n      jump\t// in\n    tag_64:\n      mload(0x40)\n      dup1\n      swap2\n      sub\n      swap1\n      log2\n        /* \"task2/BeggingContract.sol\":1247:1297  updateTopDonors(msg.sender, donations[msg.sender]) */\n      tag_66\n        /* \"task2/BeggingContract.sol\":1263:1273  msg.sender */\n      caller\n        /* \"task2/BeggingContract.sol\":1275:1284  donations */\n      0x01\n        /* \"task2/BeggingContract.sol\":1275:1296  donations[msg.sender] */\n      0x00\n        /* \"task2/BeggingContract.sol\":1285:1295  msg.sender */\n      caller\n        /* \"task2/BeggingContract.sol\":1275:1296  donations[msg.sender] */\n      0xffffffffffffffffffffffffffffffffffffffff\n      and\n      0xffffffffffffffffffffffffffffffffffffffff\n      and\n      dup2\n      mstore\n      0x20\n      add\n      swap1\n      dup2\n      mstore\n      0x20\n      add\n      0x00\n      keccak256\n      sload\n        /* \"task2/BeggingContract.sol\":1247:1262  updateTopDonors */\n      tag_67\n        /* \"task2/BeggingContract.sol\":1247:1297  updateTopDonors(msg.sender, donations[msg.sender]) */\n      jump\t// in\n    tag_66:\n        /* \"task2/BeggingContract.sol\":750:1304  {... */\n      pop\n        /* \"task2/BeggingContract.sol\":717:1304  function donate() public payable {... */\n      jump\t// out\n        /* \"task2/BeggingContract.sol\":194:227  uint256 public totalDonatedAmount */\n    tag_18:\n      sload(0x02)\n      dup2\n      jump\t// out\n        /* \"task2/BeggingContract.sol\":2442:2646  function withdraw() public payable onlyOwner {... */\n    tag_22:\n        /* \"task2/BeggingContract.sol\":2413:2418  owner */\n      0x00\n      0x00\n      swap1\n      sload\n      swap1\n      0x0100\n      exp\n      swap1\n      div\n      0xffffffffffffffffffffffffffffffffffffffff\n      and\n        /* \"task2/BeggingContract.sol\":2399:2418  msg.sender == owner */\n      0xffffffffffffffffffffffffffffffffffffffff\n      and\n        /* \"task2/BeggingContract.sol\":2399:2409  msg.sender */\n      caller\n        /* \"task2/BeggingContract.sol\":2399:2418  msg.sender == owner */\n      0xffffffffffffffffffffffffffffffffffffffff\n      and\n      eq\n        /* \"task2/BeggingContract.sol\":2391:2419  require(msg.sender == owner) */\n      tag_69\n      jumpi\n      revert(0x00, 0x00)\n    tag_69:\n        /* \"task2/BeggingContract.sol\":2497:2512  uint256 balance */\n      0x00\n        /* \"task2/BeggingContract.sol\":2515:2536  address(this).balance */\n      selfbalance\n        /* \"task2/BeggingContract.sol\":2497:2536  uint256 balance = address(this).balance */\n      swap1\n      pop\n        /* \"task2/BeggingContract.sol\":2562:2563  0 */\n      0x00\n        /* \"task2/BeggingContract.sol\":2554:2561  balance */\n      dup2\n        /* \"task2/BeggingContract.sol\":2554:2563  balance>0 */\n      gt\n        /* \"task2/BeggingContract.sol\":2546:2597  require(balance>0, \"Not enough funds to withdraw.\") */\n      tag_71\n      jumpi\n      mload(0x40)\n      0x08c379a000000000000000000000000000000000000000000000000000000000\n      dup2\n      mstore\n      0x04\n      add\n      tag_72\n      swap1\n      tag_73\n      jump\t// in\n    tag_72:\n      mload(0x40)\n      dup1\n      swap2\n      sub\n      swap1\n      revert\n    tag_71:\n        /* \"task2/BeggingContract.sol\":2615:2620  owner */\n      0x00\n      0x00\n      swap1\n      sload\n      swap1\n      0x0100\n      exp\n      swap1\n      div\n      0xffffffffffffffffffffffffffffffffffffffff\n      and\n        /* \"task2/BeggingContract.sol\":2607:2630  payable(owner).transfer */\n      0xffffffffffffffffffffffffffffffffffffffff\n      and\n        /* \"task2/BeggingContract.sol\":2607:2639  payable(owner).transfer(balance) */\n      0x08fc\n        /* \"task2/BeggingContract.sol\":2631:2638  balance */\n      dup3\n        /* \"task2/BeggingContract.sol\":2607:2639  payable(owner).transfer(balance) */\n      swap1\n      dup2\n      iszero\n      mul\n      swap1\n      mload(0x40)\n      0x00\n      mload(0x40)\n      dup1\n      dup4\n      sub\n      dup2\n      dup6\n      dup9\n      dup9\n      call\n      swap4\n      pop\n      pop\n      pop\n      pop\n      iszero\n      dup1\n      iszero\n      tag_75\n      jumpi\n      returndatacopy(0x00, 0x00, returndatasize)\n      revert(0x00, returndatasize)\n    tag_75:\n      pop\n        /* \"task2/BeggingContract.sol\":2487:2646  {... */\n      pop\n        /* \"task2/BeggingContract.sol\":2442:2646  function withdraw() public payable onlyOwner {... */\n      jump\t// out\n        /* \"task2/BeggingContract.sol\":2235:2341  function getDonation(address donor) public view returns (uint256) {... */\n    tag_27:\n        /* \"task2/BeggingContract.sol\":2292:2299  uint256 */\n      0x00\n        /* \"task2/BeggingContract.sol\":2318:2327  donations */\n      0x01\n        /* \"task2/BeggingContract.sol\":2318:2334  donations[donor] */\n      0x00\n        /* \"task2/BeggingContract.sol\":2328:2333  donor */\n      dup4\n        /* \"task2/BeggingContract.sol\":2318:2334  donations[donor] */\n      0xffffffffffffffffffffffffffffffffffffffff\n      and\n      0xffffffffffffffffffffffffffffffffffffffff\n      and\n      dup2\n      mstore\n      0x20\n      add\n      swap1\n      dup2\n      mstore\n      0x20\n      add\n      0x00\n      keccak256\n      sload\n        /* \"task2/BeggingContract.sol\":2311:2334  return donations[donor] */\n      swap1\n      pop\n        /* \"task2/BeggingContract.sol\":2235:2341  function getDonation(address donor) public view returns (uint256) {... */\n      swap2\n      swap1\n      pop\n      jump\t// out\n        /* \"task2/BeggingContract.sol\":314:346  uint256 public donationStartTime */\n    tag_31:\n      sload(0x03)\n      dup2\n      jump\t// out\n        /* \"task2/BeggingContract.sol\":465:493  TopDonor[] public top3Donors */\n    tag_37:\n      0x05\n      dup2\n      dup2\n      sload\n      dup2\n      lt\n      tag_77\n      jumpi\n      0x00\n      dup1\n      revert\n    tag_77:\n      swap1\n      0x00\n      mstore\n      keccak256(0x00, 0x20)\n      swap1\n      0x02\n      mul\n      add\n      0x00\n      swap2\n      pop\n      swap1\n      pop\n      dup1\n      0x00\n      add\n      0x00\n      swap1\n      sload\n      swap1\n      0x0100\n      exp\n      swap1\n      div\n      0xffffffffffffffffffffffffffffffffffffffff\n      and\n      swap1\n      dup1\n      0x01\n      add\n      sload\n      swap1\n      pop\n      dup3\n      jump\t// out\n        /* \"task2/BeggingContract.sol\":86:106  address public owner */\n    tag_42:\n      0x00\n      0x00\n      swap1\n      sload\n      swap1\n      0x0100\n      exp\n      swap1\n      div\n      0xffffffffffffffffffffffffffffffffffffffff\n      and\n      dup2\n      jump\t// out\n        /* \"task2/BeggingContract.sol\":352:382  uint256 public donationEndTime */\n    tag_48:\n      sload(0x04)\n      dup2\n      jump\t// out\n        /* \"task2/BeggingContract.sol\":1332:1773  function updateTopDonors(address donor, uint256 amount) private {... */\n    tag_67:\n        /* \"task2/BeggingContract.sol\":1410:1416  uint i */\n      0x00\n        /* \"task2/BeggingContract.sol\":1419:1420  0 */\n      0x00\n        /* \"task2/BeggingContract.sol\":1410:1420  uint i = 0 */\n      swap1\n      pop\n        /* \"task2/BeggingContract.sol\":1406:1767  for(uint i = 0; i < 3; i++) {... */\n    tag_80:\n        /* \"task2/BeggingContract.sol\":1426:1427  3 */\n      0x03\n        /* \"task2/BeggingContract.sol\":1422:1423  i */\n      dup2\n        /* \"task2/BeggingContract.sol\":1422:1427  i < 3 */\n      lt\n        /* \"task2/BeggingContract.sol\":1406:1767  for(uint i = 0; i < 3; i++) {... */\n      iszero\n      tag_81\n      jumpi\n        /* \"task2/BeggingContract.sol\":1475:1480  donor */\n      dup3\n        /* \"task2/BeggingContract.sol\":1452:1480  top3Donors[i].donor == donor */\n      0xffffffffffffffffffffffffffffffffffffffff\n      and\n        /* \"task2/BeggingContract.sol\":1452:1462  top3Donors */\n      0x05\n        /* \"task2/BeggingContract.sol\":1463:1464  i */\n      dup3\n        /* \"task2/BeggingContract.sol\":1452:1465  top3Donors[i] */\n      dup2\n      sload\n      dup2\n      lt\n      tag_83\n      jumpi\n      tag_84\n      tag_85\n      jump\t// in\n    tag_84:\n    tag_83:\n      swap1\n      0x00\n      mstore\n      keccak256(0x00, 0x20)\n      swap1\n      0x02\n      mul\n      add\n        /* \"task2/BeggingContract.sol\":1452:1471  top3Donors[i].donor */\n      0x00\n      add\n      0x00\n      swap1\n      sload\n      swap1\n      0x0100\n      exp\n      swap1\n      div\n      0xffffffffffffffffffffffffffffffffffffffff\n      and\n        /* \"task2/BeggingContract.sol\":1452:1480  top3Donors[i].donor == donor */\n      0xffffffffffffffffffffffffffffffffffffffff\n      and\n      sub\n        /* \"task2/BeggingContract.sol\":1448:1603  if (top3Donors[i].donor == donor) {... */\n      tag_87\n      jumpi\n        /* \"task2/BeggingContract.sol\":1524:1530  amount */\n      dup2\n        /* \"task2/BeggingContract.sol\":1500:1510  top3Donors */\n      0x05\n        /* \"task2/BeggingContract.sol\":1511:1512  i */\n      dup3\n        /* \"task2/BeggingContract.sol\":1500:1513  top3Donors[i] */\n      dup2\n      sload\n      dup2\n      lt\n      tag_88\n      jumpi\n      tag_89\n      tag_85\n      jump\t// in\n    tag_89:\n    tag_88:\n      swap1\n      0x00\n      mstore\n      keccak256(0x00, 0x20)\n      swap1\n      0x02\n      mul\n      add\n        /* \"task2/BeggingContract.sol\":1500:1520  top3Donors[i].amount */\n      0x01\n      add\n      0x00\n        /* \"task2/BeggingContract.sol\":1500:1530  top3Donors[i].amount += amount */\n      dup3\n      dup3\n      sload\n      tag_91\n      swap2\n      swap1\n      tag_62\n      jump\t// in\n    tag_91:\n      swap3\n      pop\n      pop\n      dup2\n      swap1\n      sstore\n      pop\n        /* \"task2/BeggingContract.sol\":1548:1564  _sortTopDonors() */\n      tag_92\n        /* \"task2/BeggingContract.sol\":1548:1562  _sortTopDonors */\n      tag_93\n        /* \"task2/BeggingContract.sol\":1548:1564  _sortTopDonors() */\n      jump\t// in\n    tag_92:\n        /* \"task2/BeggingContract.sol\":1582:1589  return; */\n      pop\n      jump(tag_79)\n        /* \"task2/BeggingContract.sol\":1448:1603  if (top3Donors[i].donor == donor) {... */\n    tag_87:\n        /* \"task2/BeggingContract.sol\":1629:1639  top3Donors */\n      0x05\n        /* \"task2/BeggingContract.sol\":1640:1641  2 */\n      0x02\n        /* \"task2/BeggingContract.sol\":1629:1642  top3Donors[2] */\n      dup2\n      sload\n      dup2\n      lt\n      tag_94\n      jumpi\n      tag_95\n      tag_85\n      jump\t// in\n    tag_95:\n    tag_94:\n      swap1\n      0x00\n      mstore\n      keccak256(0x00, 0x20)\n      swap1\n      0x02\n      mul\n      add\n        /* \"task2/BeggingContract.sol\":1629:1649  top3Donors[2].amount */\n      0x01\n      add\n      sload\n        /* \"task2/BeggingContract.sol\":1620:1626  amount */\n      dup3\n        /* \"task2/BeggingContract.sol\":1620:1649  amount > top3Donors[2].amount */\n      gt\n        /* \"task2/BeggingContract.sol\":1616:1757  if (amount > top3Donors[2].amount) {... */\n      iszero\n      tag_97\n      jumpi\n        /* \"task2/BeggingContract.sol\":1685:1708  TopDonor(donor, amount) */\n      mload(0x40)\n      dup1\n      0x40\n      add\n      0x40\n      mstore\n      dup1\n        /* \"task2/BeggingContract.sol\":1694:1699  donor */\n      dup5\n        /* \"task2/BeggingContract.sol\":1685:1708  TopDonor(donor, amount) */\n      0xffffffffffffffffffffffffffffffffffffffff\n      and\n      dup2\n      mstore\n      0x20\n      add\n        /* \"task2/BeggingContract.sol\":1701:1707  amount */\n      dup4\n        /* \"task2/BeggingContract.sol\":1685:1708  TopDonor(donor, amount) */\n      dup2\n      mstore\n      pop\n        /* \"task2/BeggingContract.sol\":1669:1679  top3Donors */\n      0x05\n        /* \"task2/BeggingContract.sol\":1680:1681  2 */\n      0x02\n        /* \"task2/BeggingContract.sol\":1669:1682  top3Donors[2] */\n      dup2\n      sload\n      dup2\n      lt\n      tag_98\n      jumpi\n      tag_99\n      tag_85\n      jump\t// in\n    tag_99:\n    tag_98:\n      swap1\n      0x00\n      mstore\n      keccak256(0x00, 0x20)\n      swap1\n      0x02\n      mul\n      add\n        /* \"task2/BeggingContract.sol\":1669:1708  top3Donors[2] = TopDonor(donor, amount) */\n      0x00\n      dup3\n      add\n      mload\n      dup2\n      0x00\n      add\n      exp(0x0100, 0x00)\n      dup2\n      sload\n      dup2\n      0xffffffffffffffffffffffffffffffffffffffff\n      mul\n      not\n      and\n      swap1\n      dup4\n      0xffffffffffffffffffffffffffffffffffffffff\n      and\n      mul\n      or\n      swap1\n      sstore\n      pop\n      0x20\n      dup3\n      add\n      mload\n      dup2\n      0x01\n      add\n      sstore\n      swap1\n      pop\n      pop\n        /* \"task2/BeggingContract.sol\":1726:1742  _sortTopDonors() */\n      tag_101\n        /* \"task2/BeggingContract.sol\":1726:1740  _sortTopDonors */\n      tag_93\n        /* \"task2/BeggingContract.sol\":1726:1742  _sortTopDonors() */\n      jump\t// in\n    tag_101:\n        /* \"task2/BeggingContract.sol\":1616:1757  if (amount > top3Donors[2].amount) {... */\n    tag_97:\n        /* \"task2/BeggingContract.sol\":1429:1432  i++ */\n      dup1\n      dup1\n      0x01\n      add\n      swap2\n      pop\n      pop\n        /* \"task2/BeggingContract.sol\":1406:1767  for(uint i = 0; i < 3; i++) {... */\n      jump(tag_80)\n    tag_81:\n      pop\n        /* \"task2/BeggingContract.sol\":1332:1773  function updateTopDonors(address donor, uint256 amount) private {... */\n    tag_79:\n      pop\n      pop\n      jump\t// out\n        /* \"task2/BeggingContract.sol\":1801:2189  function _sortTopDonors() internal {... */\n    tag_93:\n        /* \"task2/BeggingContract.sol\":1850:1856  uint i */\n      0x00\n        /* \"task2/BeggingContract.sol\":1859:1860  0 */\n      0x00\n        /* \"task2/BeggingContract.sol\":1850:1860  uint i = 0 */\n      swap1\n      pop\n        /* \"task2/BeggingContract.sol\":1846:2183  for(uint i = 0; i < 2; i++) {... */\n    tag_103:\n        /* \"task2/BeggingContract.sol\":1866:1867  2 */\n      0x02\n        /* \"task2/BeggingContract.sol\":1862:1863  i */\n      dup2\n        /* \"task2/BeggingContract.sol\":1862:1867  i < 2 */\n      lt\n        /* \"task2/BeggingContract.sol\":1846:2183  for(uint i = 0; i < 2; i++) {... */\n      iszero\n      tag_104\n      jumpi\n        /* \"task2/BeggingContract.sol\":1892:1898  uint j */\n      0x00\n        /* \"task2/BeggingContract.sol\":1901:1902  0 */\n      0x00\n        /* \"task2/BeggingContract.sol\":1892:1902  uint j = 0 */\n      swap1\n      pop\n        /* \"task2/BeggingContract.sol\":1888:2173  for(uint j = 0; j < 2; j++) {... */\n    tag_106:\n        /* \"task2/BeggingContract.sol\":1908:1909  2 */\n      0x02\n        /* \"task2/BeggingContract.sol\":1904:1905  j */\n      dup2\n        /* \"task2/BeggingContract.sol\":1904:1909  j < 2 */\n      lt\n        /* \"task2/BeggingContract.sol\":1888:2173  for(uint j = 0; j < 2; j++) {... */\n      iszero\n      tag_107\n      jumpi\n        /* \"task2/BeggingContract.sol\":1961:1971  top3Donors */\n      0x05\n        /* \"task2/BeggingContract.sol\":1974:1975  1 */\n      0x01\n        /* \"task2/BeggingContract.sol\":1972:1973  j */\n      dup3\n        /* \"task2/BeggingContract.sol\":1972:1975  j+1 */\n      tag_109\n      swap2\n      swap1\n      tag_62\n      jump\t// in\n    tag_109:\n        /* \"task2/BeggingContract.sol\":1961:1976  top3Donors[j+1] */\n      dup2\n      sload\n      dup2\n      lt\n      tag_110\n      jumpi\n      tag_111\n      tag_85\n      jump\t// in\n    tag_111:\n    tag_110:\n      swap1\n      0x00\n      mstore\n      keccak256(0x00, 0x20)\n      swap1\n      0x02\n      mul\n      add\n        /* \"task2/BeggingContract.sol\":1961:1983  top3Donors[j+1].amount */\n      0x01\n      add\n      sload\n        /* \"task2/BeggingContract.sol\":1938:1948  top3Donors */\n      0x05\n        /* \"task2/BeggingContract.sol\":1949:1950  j */\n      dup3\n        /* \"task2/BeggingContract.sol\":1938:1951  top3Donors[j] */\n      dup2\n      sload\n      dup2\n      lt\n      tag_113\n      jumpi\n      tag_114\n      tag_85\n      jump\t// in\n    tag_114:\n    tag_113:\n      swap1\n      0x00\n      mstore\n      keccak256(0x00, 0x20)\n      swap1\n      0x02\n      mul\n      add\n        /* \"task2/BeggingContract.sol\":1938:1958  top3Donors[j].amount */\n      0x01\n      add\n      sload\n        /* \"task2/BeggingContract.sol\":1938:1983  top3Donors[j].amount < top3Donors[j+1].amount */\n      lt\n        /* \"task2/BeggingContract.sol\":1934:2159  if (top3Donors[j].amount < top3Donors[j+1].amount) {... */\n      iszero\n      tag_116\n      jumpi\n        /* \"task2/BeggingContract.sol\":2007:2027  TopDonor memory temp */\n      0x00\n        /* \"task2/BeggingContract.sol\":2030:2040  top3Donors */\n      0x05\n        /* \"task2/BeggingContract.sol\":2041:2042  j */\n      dup3\n        /* \"task2/BeggingContract.sol\":2030:2043  top3Donors[j] */\n      dup2\n      sload\n      dup2\n      lt\n      tag_117\n      jumpi\n      tag_118\n      tag_85\n      jump\t// in\n    tag_118:\n    tag_117:\n      swap1\n      0x00\n      mstore\n      keccak256(0x00, 0x20)\n      swap1\n      0x02\n      mul\n      add\n        /* \"task2/BeggingContract.sol\":2007:2043  TopDonor memory temp = top3Donors[j] */\n      mload(0x40)\n      dup1\n      0x40\n      add\n      0x40\n      mstore\n      swap1\n      dup2\n      0x00\n      dup3\n      add\n      0x00\n      swap1\n      sload\n      swap1\n      0x0100\n      exp\n      swap1\n      div\n      0xffffffffffffffffffffffffffffffffffffffff\n      and\n      0xffffffffffffffffffffffffffffffffffffffff\n      and\n      0xffffffffffffffffffffffffffffffffffffffff\n      and\n      dup2\n      mstore\n      0x20\n      add\n      0x01\n      dup3\n      add\n      sload\n      dup2\n      mstore\n      pop\n      pop\n      swap1\n      pop\n        /* \"task2/BeggingContract.sol\":2081:2091  top3Donors */\n      0x05\n        /* \"task2/BeggingContract.sol\":2094:2095  1 */\n      0x01\n        /* \"task2/BeggingContract.sol\":2092:2093  j */\n      dup4\n        /* \"task2/BeggingContract.sol\":2092:2095  j+1 */\n      tag_120\n      swap2\n      swap1\n      tag_62\n      jump\t// in\n    tag_120:\n        /* \"task2/BeggingContract.sol\":2081:2096  top3Donors[j+1] */\n      dup2\n      sload\n      dup2\n      lt\n      tag_121\n      jumpi\n      tag_122\n      tag_85\n      jump\t// in\n    tag_122:\n    tag_121:\n      swap1\n      0x00\n      mstore\n      keccak256(0x00, 0x20)\n      swap1\n      0x02\n      mul\n      add\n        /* \"task2/BeggingContract.sol\":2065:2075  top3Donors */\n      0x05\n        /* \"task2/BeggingContract.sol\":2076:2077  j */\n      dup4\n        /* \"task2/BeggingContract.sol\":2065:2078  top3Donors[j] */\n      dup2\n      sload\n      dup2\n      lt\n      tag_124\n      jumpi\n      tag_125\n      tag_85\n      jump\t// in\n    tag_125:\n    tag_124:\n      swap1\n      0x00\n      mstore\n      keccak256(0x00, 0x20)\n      swap1\n      0x02\n      mul\n      add\n        /* \"task2/BeggingContract.sol\":2065:2096  top3Donors[j] = top3Donors[j+1] */\n      0x00\n      dup3\n      add\n      0x00\n      swap1\n      sload\n      swap1\n      0x0100\n      exp\n      swap1\n      div\n      0xffffffffffffffffffffffffffffffffffffffff\n      and\n      dup2\n      0x00\n      add\n      exp(0x0100, 0x00)\n      dup2\n      sload\n      dup2\n      0xffffffffffffffffffffffffffffffffffffffff\n      mul\n      not\n      and\n      swap1\n      dup4\n      0xffffffffffffffffffffffffffffffffffffffff\n      and\n      mul\n      or\n      swap1\n      sstore\n      pop\n      0x01\n      dup3\n      add\n      sload\n      dup2\n      0x01\n      add\n      sstore\n      swap1\n      pop\n      pop\n        /* \"task2/BeggingContract.sol\":2136:2140  temp */\n      dup1\n        /* \"task2/BeggingContract.sol\":2118:2128  top3Donors */\n      0x05\n        /* \"task2/BeggingContract.sol\":2131:2132  1 */\n      0x01\n        /* \"task2/BeggingContract.sol\":2129:2130  j */\n      dup5\n        /* \"task2/BeggingContract.sol\":2129:2132  j+1 */\n      tag_127\n      swap2\n      swap1\n      tag_62\n      jump\t// in\n    tag_127:\n        /* \"task2/BeggingContract.sol\":2118:2133  top3Donors[j+1] */\n      dup2\n      sload\n      dup2\n      lt\n      tag_128\n      jumpi\n      tag_129\n      tag_85\n      jump\t// in\n    tag_129:\n    tag_128:\n      swap1\n      0x00\n      mstore\n      keccak256(0x00, 0x20)\n      swap1\n      0x02\n      mul\n      add\n        /* \"task2/BeggingContract.sol\":2118:2140  top3Donors[j+1] = temp */\n      0x00\n      dup3\n      add\n      mload\n      dup2\n      0x00\n      add\n      exp(0x0100, 0x00)\n      dup2\n      sload\n      dup2\n      0xffffffffffffffffffffffffffffffffffffffff\n      mul\n      not\n      and\n      swap1\n      dup4\n      0xffffffffffffffffffffffffffffffffffffffff\n      and\n      mul\n      or\n      swap1\n      sstore\n      pop\n      0x20\n      dup3\n      add\n      mload\n      dup2\n      0x01\n      add\n      sstore\n      swap1\n      pop\n      pop\n        /* \"task2/BeggingContract.sol\":1985:2159  {... */\n      pop\n        /* \"task2/BeggingContract.sol\":1934:2159  if (top3Donors[j].amount < top3Donors[j+1].amount) {... */\n    tag_116:\n        /* \"task2/BeggingContract.sol\":1911:1914  j++ */\n      dup1\n      dup1\n      0x01\n      add\n      swap2\n      pop\n      pop\n        /* \"task2/BeggingContract.sol\":1888:2173  for(uint j = 0; j < 2; j++) {... */\n      jump(tag_106)\n    tag_107:\n      pop\n        /* \"task2/BeggingContract.sol\":1869:1872  i++ */\n      dup1\n      dup1\n      0x01\n      add\n      swap2\n      pop\n      pop\n        /* \"task2/BeggingContract.sol\":1846:2183  for(uint i = 0; i < 2; i++) {... */\n      jump(tag_103)\n    tag_104:\n      pop\n        /* \"task2/BeggingContract.sol\":1801:2189  function _sortTopDonors() internal {... */\n      jump\t// out\n        /* \"#utility.yul\":7:84   */\n    tag_131:\n        /* \"#utility.yul\":44:51   */\n      0x00\n        /* \"#utility.yul\":73:78   */\n      dup2\n        /* \"#utility.yul\":62:78   */\n      swap1\n      pop\n        /* \"#utility.yul\":7:84   */\n      swap2\n      swap1\n      pop\n      jump\t// out\n        /* \"#utility.yul\":90:208   */\n    tag_132:\n        /* \"#utility.yul\":177:201   */\n      tag_156\n        /* \"#utility.yul\":195:200   */\n      dup2\n        /* \"#utility.yul\":177:201   */\n      tag_131\n      jump\t// in\n    tag_156:\n        /* \"#utility.yul\":172:175   */\n      dup3\n        /* \"#utility.yul\":165:202   */\n      mstore\n        /* \"#utility.yul\":90:208   */\n      pop\n      pop\n      jump\t// out\n        /* \"#utility.yul\":214:436   */\n    tag_20:\n        /* \"#utility.yul\":307:311   */\n      0x00\n        /* \"#utility.yul\":345:347   */\n      0x20\n        /* \"#utility.yul\":334:343   */\n      dup3\n        /* \"#utility.yul\":330:348   */\n      add\n        /* \"#utility.yul\":322:348   */\n      swap1\n      pop\n        /* \"#utility.yul\":358:429   */\n      tag_158\n        /* \"#utility.yul\":426:427   */\n      0x00\n        /* \"#utility.yul\":415:424   */\n      dup4\n        /* \"#utility.yul\":411:428   */\n      add\n        /* \"#utility.yul\":402:408   */\n      dup5\n        /* \"#utility.yul\":358:429   */\n      tag_132\n      jump\t// in\n    tag_158:\n        /* \"#utility.yul\":214:436   */\n      swap3\n      swap2\n      pop\n      pop\n      jump\t// out\n        /* \"#utility.yul\":523:640   */\n    tag_134:\n        /* \"#utility.yul\":632:633   */\n      0x00\n        /* \"#utility.yul\":629:630   */\n      0x00\n        /* \"#utility.yul\":622:634   */\n      revert\n        /* \"#utility.yul\":769:895   */\n    tag_136:\n        /* \"#utility.yul\":806:813   */\n      0x00\n        /* \"#utility.yul\":846:888   */\n      0xffffffffffffffffffffffffffffffffffffffff\n        /* \"#utility.yul\":839:844   */\n      dup3\n        /* \"#utility.yul\":835:889   */\n      and\n        /* \"#utility.yul\":824:889   */\n      swap1\n      pop\n        /* \"#utility.yul\":769:895   */\n      swap2\n      swap1\n      pop\n      jump\t// out\n        /* \"#utility.yul\":901:997   */\n    tag_137:\n        /* \"#utility.yul\":938:945   */\n      0x00\n        /* \"#utility.yul\":967:991   */\n      tag_164\n        /* \"#utility.yul\":985:990   */\n      dup3\n        /* \"#utility.yul\":967:991   */\n      tag_136\n      jump\t// in\n    tag_164:\n        /* \"#utility.yul\":956:991   */\n      swap1\n      pop\n        /* \"#utility.yul\":901:997   */\n      swap2\n      swap1\n      pop\n      jump\t// out\n        /* \"#utility.yul\":1003:1125   */\n    tag_138:\n        /* \"#utility.yul\":1076:1100   */\n      tag_166\n        /* \"#utility.yul\":1094:1099   */\n      dup2\n        /* \"#utility.yul\":1076:1100   */\n      tag_137\n      jump\t// in\n    tag_166:\n        /* \"#utility.yul\":1069:1074   */\n      dup2\n        /* \"#utility.yul\":1066:1101   */\n      eq\n        /* \"#utility.yul\":1056:1119   */\n      tag_167\n      jumpi\n        /* \"#utility.yul\":1115:1116   */\n      0x00\n        /* \"#utility.yul\":1112:1113   */\n      0x00\n        /* \"#utility.yul\":1105:1117   */\n      revert\n        /* \"#utility.yul\":1056:1119   */\n    tag_167:\n        /* \"#utility.yul\":1003:1125   */\n      pop\n      jump\t// out\n        /* \"#utility.yul\":1131:1270   */\n    tag_139:\n        /* \"#utility.yul\":1177:1182   */\n      0x00\n        /* \"#utility.yul\":1215:1221   */\n      dup2\n        /* \"#utility.yul\":1202:1222   */\n      calldataload\n        /* \"#utility.yul\":1193:1222   */\n      swap1\n      pop\n        /* \"#utility.yul\":1231:1264   */\n      tag_169\n        /* \"#utility.yul\":1258:1263   */\n      dup2\n        /* \"#utility.yul\":1231:1264   */\n      tag_138\n      jump\t// in\n    tag_169:\n        /* \"#utility.yul\":1131:1270   */\n      swap3\n      swap2\n      pop\n      pop\n      jump\t// out\n        /* \"#utility.yul\":1276:1605   */\n    tag_26:\n        /* \"#utility.yul\":1335:1341   */\n      0x00\n        /* \"#utility.yul\":1384:1386   */\n      0x20\n        /* \"#utility.yul\":1372:1381   */\n      dup3\n        /* \"#utility.yul\":1363:1370   */\n      dup5\n        /* \"#utility.yul\":1359:1382   */\n      sub\n        /* \"#utility.yul\":1355:1387   */\n      slt\n        /* \"#utility.yul\":1352:1471   */\n      iszero\n      tag_171\n      jumpi\n        /* \"#utility.yul\":1390:1469   */\n      tag_172\n      tag_134\n      jump\t// in\n    tag_172:\n        /* \"#utility.yul\":1352:1471   */\n    tag_171:\n        /* \"#utility.yul\":1510:1511   */\n      0x00\n        /* \"#utility.yul\":1535:1588   */\n      tag_173\n        /* \"#utility.yul\":1580:1587   */\n      dup5\n        /* \"#utility.yul\":1571:1577   */\n      dup3\n        /* \"#utility.yul\":1560:1569   */\n      dup6\n        /* \"#utility.yul\":1556:1578   */\n      add\n        /* \"#utility.yul\":1535:1588   */\n      tag_139\n      jump\t// in\n    tag_173:\n        /* \"#utility.yul\":1525:1588   */\n      swap2\n      pop\n        /* \"#utility.yul\":1481:1598   */\n      pop\n        /* \"#utility.yul\":1276:1605   */\n      swap3\n      swap2\n      pop\n      pop\n      jump\t// out\n        /* \"#utility.yul\":1611:1733   */\n    tag_140:\n        /* \"#utility.yul\":1684:1708   */\n      tag_175\n        /* \"#utility.yul\":1702:1707   */\n      dup2\n        /* \"#utility.yul\":1684:1708   */\n      tag_131\n      jump\t// in\n    tag_175:\n        /* \"#utility.yul\":1677:1682   */\n      dup2\n        /* \"#utility.yul\":1674:1709   */\n      eq\n        /* \"#utility.yul\":1664:1727   */\n      tag_176\n      jumpi\n        /* \"#utility.yul\":1723:1724   */\n      0x00\n        /* \"#utility.yul\":1720:1721   */\n      0x00\n        /* \"#utility.yul\":1713:1725   */\n      revert\n        /* \"#utility.yul\":1664:1727   */\n    tag_176:\n        /* \"#utility.yul\":1611:1733   */\n      pop\n      jump\t// out\n        /* \"#utility.yul\":1739:1878   */\n    tag_141:\n        /* \"#utility.yul\":1785:1790   */\n      0x00\n        /* \"#utility.yul\":1823:1829   */\n      dup2\n        /* \"#utility.yul\":1810:1830   */\n      calldataload\n        /* \"#utility.yul\":1801:1830   */\n      swap1\n      pop\n        /* \"#utility.yul\":1839:1872   */\n      tag_178\n        /* \"#utility.yul\":1866:1871   */\n      dup2\n        /* \"#utility.yul\":1839:1872   */\n      tag_140\n      jump\t// in\n    tag_178:\n        /* \"#utility.yul\":1739:1878   */\n      swap3\n      swap2\n      pop\n      pop\n      jump\t// out\n        /* \"#utility.yul\":1884:2213   */\n    tag_36:\n        /* \"#utility.yul\":1943:1949   */\n      0x00\n        /* \"#utility.yul\":1992:1994   */\n      0x20\n        /* \"#utility.yul\":1980:1989   */\n      dup3\n        /* \"#utility.yul\":1971:1978   */\n      dup5\n        /* \"#utility.yul\":1967:1990   */\n      sub\n        /* \"#utility.yul\":1963:1995   */\n      slt\n        /* \"#utility.yul\":1960:2079   */\n      iszero\n      tag_180\n      jumpi\n        /* \"#utility.yul\":1998:2077   */\n      tag_181\n      tag_134\n      jump\t// in\n    tag_181:\n        /* \"#utility.yul\":1960:2079   */\n    tag_180:\n        /* \"#utility.yul\":2118:2119   */\n      0x00\n        /* \"#utility.yul\":2143:2196   */\n      tag_182\n        /* \"#utility.yul\":2188:2195   */\n      dup5\n        /* \"#utility.yul\":2179:2185   */\n      dup3\n        /* \"#utility.yul\":2168:2177   */\n      dup6\n        /* \"#utility.yul\":2164:2186   */\n      add\n        /* \"#utility.yul\":2143:2196   */\n      tag_141\n      jump\t// in\n    tag_182:\n        /* \"#utility.yul\":2133:2196   */\n      swap2\n      pop\n        /* \"#utility.yul\":2089:2206   */\n      pop\n        /* \"#utility.yul\":1884:2213   */\n      swap3\n      swap2\n      pop\n      pop\n      jump\t// out\n        /* \"#utility.yul\":2219:2337   */\n    tag_142:\n        /* \"#utility.yul\":2306:2330   */\n      tag_184\n        /* \"#utility.yul\":2324:2329   */\n      dup2\n        /* \"#utility.yul\":2306:2330   */\n      tag_137\n      jump\t// in\n    tag_184:\n        /* \"#utility.yul\":2301:2304   */\n      dup3\n        /* \"#utility.yul\":2294:2331   */\n      mstore\n        /* \"#utility.yul\":2219:2337   */\n      pop\n      pop\n      jump\t// out\n        /* \"#utility.yul\":2343:2675   */\n    tag_39:\n        /* \"#utility.yul\":2464:2468   */\n      0x00\n        /* \"#utility.yul\":2502:2504   */\n      0x40\n        /* \"#utility.yul\":2491:2500   */\n      dup3\n        /* \"#utility.yul\":2487:2505   */\n      add\n        /* \"#utility.yul\":2479:2505   */\n      swap1\n      pop\n        /* \"#utility.yul\":2515:2586   */\n      tag_186\n        /* \"#utility.yul\":2583:2584   */\n      0x00\n        /* \"#utility.yul\":2572:2581   */\n      dup4\n        /* \"#utility.yul\":2568:2585   */\n      add\n        /* \"#utility.yul\":2559:2565   */\n      dup6\n        /* \"#utility.yul\":2515:2586   */\n      tag_142\n      jump\t// in\n    tag_186:\n        /* \"#utility.yul\":2596:2668   */\n      tag_187\n        /* \"#utility.yul\":2664:2666   */\n      0x20\n        /* \"#utility.yul\":2653:2662   */\n      dup4\n        /* \"#utility.yul\":2649:2667   */\n      add\n        /* \"#utility.yul\":2640:2646   */\n      dup5\n        /* \"#utility.yul\":2596:2668   */\n      tag_132\n      jump\t// in\n    tag_187:\n        /* \"#utility.yul\":2343:2675   */\n      swap4\n      swap3\n      pop\n      pop\n      pop\n      jump\t// out\n        /* \"#utility.yul\":2681:2903   */\n    tag_44:\n        /* \"#utility.yul\":2774:2778   */\n      0x00\n        /* \"#utility.yul\":2812:2814   */\n      0x20\n        /* \"#utility.yul\":2801:2810   */\n      dup3\n        /* \"#utility.yul\":2797:2815   */\n      add\n        /* \"#utility.yul\":2789:2815   */\n      swap1\n      pop\n        /* \"#utility.yul\":2825:2896   */\n      tag_189\n        /* \"#utility.yul\":2893:2894   */\n      0x00\n        /* \"#utility.yul\":2882:2891   */\n      dup4\n        /* \"#utility.yul\":2878:2895   */\n      add\n        /* \"#utility.yul\":2869:2875   */\n      dup5\n        /* \"#utility.yul\":2825:2896   */\n      tag_142\n      jump\t// in\n    tag_189:\n        /* \"#utility.yul\":2681:2903   */\n      swap3\n      swap2\n      pop\n      pop\n      jump\t// out\n        /* \"#utility.yul\":2909:3078   */\n    tag_143:\n        /* \"#utility.yul\":2993:3004   */\n      0x00\n        /* \"#utility.yul\":3027:3033   */\n      dup3\n        /* \"#utility.yul\":3022:3025   */\n      dup3\n        /* \"#utility.yul\":3015:3034   */\n      mstore\n        /* \"#utility.yul\":3067:3071   */\n      0x20\n        /* \"#utility.yul\":3062:3065   */\n      dup3\n        /* \"#utility.yul\":3058:3072   */\n      add\n        /* \"#utility.yul\":3043:3072   */\n      swap1\n      pop\n        /* \"#utility.yul\":2909:3078   */\n      swap3\n      swap2\n      pop\n      pop\n      jump\t// out\n        /* \"#utility.yul\":3084:3257   */\n    tag_144:\n        /* \"#utility.yul\":3224:3249   */\n      0x446f6e6174696f6e206973206e6f742073746172746564000000000000000000\n        /* \"#utility.yul\":3220:3221   */\n      0x00\n        /* \"#utility.yul\":3212:3218   */\n      dup3\n        /* \"#utility.yul\":3208:3222   */\n      add\n        /* \"#utility.yul\":3201:3250   */\n      mstore\n        /* \"#utility.yul\":3084:3257   */\n      pop\n      jump\t// out\n        /* \"#utility.yul\":3263:3629   */\n    tag_145:\n        /* \"#utility.yul\":3405:3408   */\n      0x00\n        /* \"#utility.yul\":3426:3493   */\n      tag_193\n        /* \"#utility.yul\":3490:3492   */\n      0x17\n        /* \"#utility.yul\":3485:3488   */\n      dup4\n        /* \"#utility.yul\":3426:3493   */\n      tag_143\n      jump\t// in\n    tag_193:\n        /* \"#utility.yul\":3419:3493   */\n      swap2\n      pop\n        /* \"#utility.yul\":3502:3595   */\n      tag_194\n        /* \"#utility.yul\":3591:3594   */\n      dup3\n        /* \"#utility.yul\":3502:3595   */\n      tag_144\n      jump\t// in\n    tag_194:\n        /* \"#utility.yul\":3620:3622   */\n      0x20\n        /* \"#utility.yul\":3615:3618   */\n      dup3\n        /* \"#utility.yul\":3611:3623   */\n      add\n        /* \"#utility.yul\":3604:3623   */\n      swap1\n      pop\n        /* \"#utility.yul\":3263:3629   */\n      swap2\n      swap1\n      pop\n      jump\t// out\n        /* \"#utility.yul\":3635:4054   */\n    tag_53:\n        /* \"#utility.yul\":3801:3805   */\n      0x00\n        /* \"#utility.yul\":3839:3841   */\n      0x20\n        /* \"#utility.yul\":3828:3837   */\n      dup3\n        /* \"#utility.yul\":3824:3842   */\n      add\n        /* \"#utility.yul\":3816:3842   */\n      swap1\n      pop\n        /* \"#utility.yul\":3888:3897   */\n      dup2\n        /* \"#utility.yul\":3882:3886   */\n      dup2\n        /* \"#utility.yul\":3878:3898   */\n      sub\n        /* \"#utility.yul\":3874:3875   */\n      0x00\n        /* \"#utility.yul\":3863:3872   */\n      dup4\n        /* \"#utility.yul\":3859:3876   */\n      add\n        /* \"#utility.yul\":3852:3899   */\n      mstore\n        /* \"#utility.yul\":3916:4047   */\n      tag_196\n        /* \"#utility.yul\":4042:4046   */\n      dup2\n        /* \"#utility.yul\":3916:4047   */\n      tag_145\n      jump\t// in\n    tag_196:\n        /* \"#utility.yul\":3908:4047   */\n      swap1\n      pop\n        /* \"#utility.yul\":3635:4054   */\n      swap2\n      swap1\n      pop\n      jump\t// out\n        /* \"#utility.yul\":4060:4233   */\n    tag_146:\n        /* \"#utility.yul\":4200:4225   */\n      0x446f6e6174696f6e20706572696f64206973206f766572000000000000000000\n        /* \"#utility.yul\":4196:4197   */\n      0x00\n        /* \"#utility.yul\":4188:4194   */\n      dup3\n        /* \"#utility.yul\":4184:4198   */\n      add\n        /* \"#utility.yul\":4177:4226   */\n      mstore\n        /* \"#utility.yul\":4060:4233   */\n      pop\n      jump\t// out\n        /* \"#utility.yul\":4239:4605   */\n    tag_147:\n        /* \"#utility.yul\":4381:4384   */\n      0x00\n        /* \"#utility.yul\":4402:4469   */\n      tag_199\n        /* \"#utility.yul\":4466:4468   */\n      0x17\n        /* \"#utility.yul\":4461:4464   */\n      dup4\n        /* \"#utility.yul\":4402:4469   */\n      tag_143\n      jump\t// in\n    tag_199:\n        /* \"#utility.yul\":4395:4469   */\n      swap2\n      pop\n        /* \"#utility.yul\":4478:4571   */\n      tag_200\n        /* \"#utility.yul\":4567:4570   */\n      dup3\n        /* \"#utility.yul\":4478:4571   */\n      tag_146\n      jump\t// in\n    tag_200:\n        /* \"#utility.yul\":4596:4598   */\n      0x20\n        /* \"#utility.yul\":4591:4594   */\n      dup3\n        /* \"#utility.yul\":4587:4599   */\n      add\n        /* \"#utility.yul\":4580:4599   */\n      swap1\n      pop\n        /* \"#utility.yul\":4239:4605   */\n      swap2\n      swap1\n      pop\n      jump\t// out\n        /* \"#utility.yul\":4611:5030   */\n    tag_57:\n        /* \"#utility.yul\":4777:4781   */\n      0x00\n        /* \"#utility.yul\":4815:4817   */\n      0x20\n        /* \"#utility.yul\":4804:4813   */\n      dup3\n        /* \"#utility.yul\":4800:4818   */\n      add\n        /* \"#utility.yul\":4792:4818   */\n      swap1\n      pop\n        /* \"#utility.yul\":4864:4873   */\n      dup2\n        /* \"#utility.yul\":4858:4862   */\n      dup2\n        /* \"#utility.yul\":4854:4874   */\n      sub\n        /* \"#utility.yul\":4850:4851   */\n      0x00\n        /* \"#utility.yul\":4839:4848   */\n      dup4\n        /* \"#utility.yul\":4835:4852   */\n      add\n        /* \"#utility.yul\":4828:4875   */\n      mstore\n        /* \"#utility.yul\":4892:5023   */\n      tag_202\n        /* \"#utility.yul\":5018:5022   */\n      dup2\n        /* \"#utility.yul\":4892:5023   */\n      tag_147\n      jump\t// in\n    tag_202:\n        /* \"#utility.yul\":4884:5023   */\n      swap1\n      pop\n        /* \"#utility.yul\":4611:5030   */\n      swap2\n      swap1\n      pop\n      jump\t// out\n        /* \"#utility.yul\":5036:5261   */\n    tag_148:\n        /* \"#utility.yul\":5176:5210   */\n      0x446f6e6174696f6e20616d6f756e74206d757374206265206772656174657220\n        /* \"#utility.yul\":5172:5173   */\n      0x00\n        /* \"#utility.yul\":5164:5170   */\n      dup3\n        /* \"#utility.yul\":5160:5174   */\n      add\n        /* \"#utility.yul\":5153:5211   */\n      mstore\n        /* \"#utility.yul\":5245:5253   */\n      0x7468616e20300000000000000000000000000000000000000000000000000000\n        /* \"#utility.yul\":5240:5242   */\n      0x20\n        /* \"#utility.yul\":5232:5238   */\n      dup3\n        /* \"#utility.yul\":5228:5243   */\n      add\n        /* \"#utility.yul\":5221:5254   */\n      mstore\n        /* \"#utility.yul\":5036:5261   */\n      pop\n      jump\t// out\n        /* \"#utility.yul\":5267:5633   */\n    tag_149:\n        /* \"#utility.yul\":5409:5412   */\n      0x00\n        /* \"#utility.yul\":5430:5497   */\n      tag_205\n        /* \"#utility.yul\":5494:5496   */\n      0x26\n        /* \"#utility.yul\":5489:5492   */\n      dup4\n        /* \"#utility.yul\":5430:5497   */\n      tag_143\n      jump\t// in\n    tag_205:\n        /* \"#utility.yul\":5423:5497   */\n      swap2\n      pop\n        /* \"#utility.yul\":5506:5599   */\n      tag_206\n        /* \"#utility.yul\":5595:5598   */\n      dup3\n        /* \"#utility.yul\":5506:5599   */\n      tag_148\n      jump\t// in\n    tag_206:\n        /* \"#utility.yul\":5624:5626   */\n      0x40\n        /* \"#utility.yul\":5619:5622   */\n      dup3\n        /* \"#utility.yul\":5615:5627   */\n      add\n        /* \"#utility.yul\":5608:5627   */\n      swap1\n      pop\n        /* \"#utility.yul\":5267:5633   */\n      swap2\n      swap1\n      pop\n      jump\t// out\n        /* \"#utility.yul\":5639:6058   */\n    tag_60:\n        /* \"#utility.yul\":5805:5809   */\n      0x00\n        /* \"#utility.yul\":5843:5845   */\n      0x20\n        /* \"#utility.yul\":5832:5841   */\n      dup3\n        /* \"#utility.yul\":5828:5846   */\n      add\n        /* \"#utility.yul\":5820:5846   */\n      swap1\n      pop\n        /* \"#utility.yul\":5892:5901   */\n      dup2\n        /* \"#utility.yul\":5886:5890   */\n      dup2\n        /* \"#utility.yul\":5882:5902   */\n      sub\n        /* \"#utility.yul\":5878:5879   */\n      0x00\n        /* \"#utility.yul\":5867:5876   */\n      dup4\n        /* \"#utility.yul\":5863:5880   */\n      add\n        /* \"#utility.yul\":5856:5903   */\n      mstore\n        /* \"#utility.yul\":5920:6051   */\n      tag_208\n        /* \"#utility.yul\":6046:6050   */\n      dup2\n        /* \"#utility.yul\":5920:6051   */\n      tag_149\n      jump\t// in\n    tag_208:\n        /* \"#utility.yul\":5912:6051   */\n      swap1\n      pop\n        /* \"#utility.yul\":5639:6058   */\n      swap2\n      swap1\n      pop\n      jump\t// out\n        /* \"#utility.yul\":6064:6244   */\n    tag_150:\n        /* \"#utility.yul\":6112:6189   */\n      0x4e487b7100000000000000000000000000000000000000000000000000000000\n        /* \"#utility.yul\":6109:6110   */\n      0x00\n        /* \"#utility.yul\":6102:6190   */\n      mstore\n        /* \"#utility.yul\":6209:6213   */\n      0x11\n        /* \"#utility.yul\":6206:6207   */\n      0x04\n        /* \"#utility.yul\":6199:6214   */\n      mstore\n        /* \"#utility.yul\":6233:6237   */\n      0x24\n        /* \"#utility.yul\":6230:6231   */\n      0x00\n        /* \"#utility.yul\":6223:6238   */\n      revert\n        /* \"#utility.yul\":6250:6441   */\n    tag_62:\n        /* \"#utility.yul\":6290:6293   */\n      0x00\n        /* \"#utility.yul\":6309:6329   */\n      tag_211\n        /* \"#utility.yul\":6327:6328   */\n      dup3\n        /* \"#utility.yul\":6309:6329   */\n      tag_131\n      jump\t// in\n    tag_211:\n        /* \"#utility.yul\":6304:6329   */\n      swap2\n      pop\n        /* \"#utility.yul\":6343:6363   */\n      tag_212\n        /* \"#utility.yul\":6361:6362   */\n      dup4\n        /* \"#utility.yul\":6343:6363   */\n      tag_131\n      jump\t// in\n    tag_212:\n        /* \"#utility.yul\":6338:6363   */\n      swap3\n      pop\n        /* \"#utility.yul\":6386:6387   */\n      dup3\n        /* \"#utility.yul\":6383:6384   */\n      dup3\n        /* \"#utility.yul\":6379:6388   */\n      add\n        /* \"#utility.yul\":6372:6388   */\n      swap1\n      pop\n        /* \"#utility.yul\":6407:6410   */\n      dup1\n        /* \"#utility.yul\":6404:6405   */\n      dup3\n        /* \"#utility.yul\":6401:6411   */\n      gt\n        /* \"#utility.yul\":6398:6434   */\n      iszero\n      tag_213\n      jumpi\n        /* \"#utility.yul\":6414:6432   */\n      tag_214\n      tag_150\n      jump\t// in\n    tag_214:\n        /* \"#utility.yul\":6398:6434   */\n    tag_213:\n        /* \"#utility.yul\":6250:6441   */\n      swap3\n      swap2\n      pop\n      pop\n      jump\t// out\n        /* \"#utility.yul\":6447:6779   */\n    tag_65:\n        /* \"#utility.yul\":6568:6572   */\n      0x00\n        /* \"#utility.yul\":6606:6608   */\n      0x40\n        /* \"#utility.yul\":6595:6604   */\n      dup3\n        /* \"#utility.yul\":6591:6609   */\n      add\n        /* \"#utility.yul\":6583:6609   */\n      swap1\n      pop\n        /* \"#utility.yul\":6619:6690   */\n      tag_216\n        /* \"#utility.yul\":6687:6688   */\n      0x00\n        /* \"#utility.yul\":6676:6685   */\n      dup4\n        /* \"#utility.yul\":6672:6689   */\n      add\n        /* \"#utility.yul\":6663:6669   */\n      dup6\n        /* \"#utility.yul\":6619:6690   */\n      tag_132\n      jump\t// in\n    tag_216:\n        /* \"#utility.yul\":6700:6772   */\n      tag_217\n        /* \"#utility.yul\":6768:6770   */\n      0x20\n        /* \"#utility.yul\":6757:6766   */\n      dup4\n        /* \"#utility.yul\":6753:6771   */\n      add\n        /* \"#utility.yul\":6744:6750   */\n      dup5\n        /* \"#utility.yul\":6700:6772   */\n      tag_132\n      jump\t// in\n    tag_217:\n        /* \"#utility.yul\":6447:6779   */\n      swap4\n      swap3\n      pop\n      pop\n      pop\n      jump\t// out\n        /* \"#utility.yul\":6785:6964   */\n    tag_151:\n        /* \"#utility.yul\":6925:6956   */\n      0x4e6f7420656e6f7567682066756e647320746f2077697468647261772e000000\n        /* \"#utility.yul\":6921:6922   */\n      0x00\n        /* \"#utility.yul\":6913:6919   */\n      dup3\n        /* \"#utility.yul\":6909:6923   */\n      add\n        /* \"#utility.yul\":6902:6957   */\n      mstore\n        /* \"#utility.yul\":6785:6964   */\n      pop\n      jump\t// out\n        /* \"#utility.yul\":6970:7336   */\n    tag_152:\n        /* \"#utility.yul\":7112:7115   */\n      0x00\n        /* \"#utility.yul\":7133:7200   */\n      tag_220\n        /* \"#utility.yul\":7197:7199   */\n      0x1d\n        /* \"#utility.yul\":7192:7195   */\n      dup4\n        /* \"#utility.yul\":7133:7200   */\n      tag_143\n      jump\t// in\n    tag_220:\n        /* \"#utility.yul\":7126:7200   */\n      swap2\n      pop\n        /* \"#utility.yul\":7209:7302   */\n      tag_221\n        /* \"#utility.yul\":7298:7301   */\n      dup3\n        /* \"#utility.yul\":7209:7302   */\n      tag_151\n      jump\t// in\n    tag_221:\n        /* \"#utility.yul\":7327:7329   */\n      0x20\n        /* \"#utility.yul\":7322:7325   */\n      dup3\n        /* \"#utility.yul\":7318:7330   */\n      add\n        /* \"#utility.yul\":7311:7330   */\n      swap1\n      pop\n        /* \"#utility.yul\":6970:7336   */\n      swap2\n      swap1\n      pop\n      jump\t// out\n        /* \"#utility.yul\":7342:7761   */\n    tag_73:\n        /* \"#utility.yul\":7508:7512   */\n      0x00\n        /* \"#utility.yul\":7546:7548   */\n      0x20\n        /* \"#utility.yul\":7535:7544   */\n      dup3\n        /* \"#utility.yul\":7531:7549   */\n      add\n        /* \"#utility.yul\":7523:7549   */\n      swap1\n      pop\n        /* \"#utility.yul\":7595:7604   */\n      dup2\n        /* \"#utility.yul\":7589:7593   */\n      dup2\n        /* \"#utility.yul\":7585:7605   */\n      sub\n        /* \"#utility.yul\":7581:7582   */\n      0x00\n        /* \"#utility.yul\":7570:7579   */\n      dup4\n        /* \"#utility.yul\":7566:7583   */\n      add\n        /* \"#utility.yul\":7559:7606   */\n      mstore\n        /* \"#utility.yul\":7623:7754   */\n      tag_223\n        /* \"#utility.yul\":7749:7753   */\n      dup2\n        /* \"#utility.yul\":7623:7754   */\n      tag_152\n      jump\t// in\n    tag_223:\n        /* \"#utility.yul\":7615:7754   */\n      swap1\n      pop\n        /* \"#utility.yul\":7342:7761   */\n      swap2\n      swap1\n      pop\n      jump\t// out\n        /* \"#utility.yul\":7767:7947   */\n    tag_85:\n        /* \"#utility.yul\":7815:7892   */\n      0x4e487b7100000000000000000000000000000000000000000000000000000000\n        /* \"#utility.yul\":7812:7813   */\n      0x00\n        /* \"#utility.yul\":7805:7893   */\n      mstore\n        /* \"#utility.yul\":7912:7916   */\n      0x32\n        /* \"#utility.yul\":7909:7910   */\n      0x04\n        /* \"#utility.yul\":7902:7917   */\n      mstore\n        /* \"#utility.yul\":7936:7940   */\n      0x24\n        /* \"#utility.yul\":7933:7934   */\n      0x00\n        /* \"#utility.yul\":7926:7941   */\n      revert\n\n    auxdata: 0xa2646970667358221220c11aacce681a959b83e5943f85c596f5c9a6906e64efa134a3b0ff00975296f464736f6c634300081e0033\n}\n",
				"bytecode": {
					"linkReferences": {},
					"object": "608060405234801561000f575f5ffd5b50604051610f4a380380610f4a833981810160405281019061003191906100d5565b335f5f6101000a81548173ffffffffffffffffffffffffffffffffffffffff021916908373ffffffffffffffffffffffffffffffffffffffff16021790555042600381905550610e1081610085919061012d565b600354610092919061016e565b600481905550506101a1565b5f5ffd5b5f819050919050565b6100b4816100a2565b81146100be575f5ffd5b50565b5f815190506100cf816100ab565b92915050565b5f602082840312156100ea576100e961009e565b5b5f6100f7848285016100c1565b91505092915050565b7f4e487b71000000000000000000000000000000000000000000000000000000005f52601160045260245ffd5b5f610137826100a2565b9150610142836100a2565b9250828202610150816100a2565b9150828204841483151761016757610166610100565b5b5092915050565b5f610178826100a2565b9150610183836100a2565b925082820190508082111561019b5761019a610100565b5b92915050565b610d9c806101ae5f395ff3fe60806040526004361061007e575f3560e01c8063835b6b821161004d578063835b6b821461012b5780638da5cb5b14610168578063ed88c68e14610192578063f12a4a531461019c5761008d565b806320fa44cd146100915780633ccfd60b146100bb578063410a1d32146100c557806378331552146101015761008d565b3661008d5761008b6101c6565b005b5f5ffd5b34801561009c575f5ffd5b506100a56103a6565b6040516100b29190610996565b60405180910390f35b6100c36103ac565b005b3480156100d0575f5ffd5b506100eb60048036038101906100e69190610a0d565b6104b0565b6040516100f89190610996565b60405180910390f35b34801561010c575f5ffd5b506101156104f6565b6040516101229190610996565b60405180910390f35b348015610136575f5ffd5b50610151600480360381019061014c9190610a62565b6104fc565b60405161015f929190610a9c565b60405180910390f35b348015610173575f5ffd5b5061017c61054a565b6040516101899190610ac3565b60405180910390f35b61019a6101c6565b005b3480156101a7575f5ffd5b506101b061056e565b6040516101bd9190610996565b60405180910390f35b600354421161020a576040517f08c379a000000000000000000000000000000000000000000000000000000000815260040161020190610b36565b60405180910390fd5b6003544211801561021c575060045442105b61025b576040517f08c379a000000000000000000000000000000000000000000000000000000000815260040161025290610b9e565b60405180910390fd5b5f341161029d576040517f08c379a000000000000000000000000000000000000000000000000000000000815260040161029490610c2c565b60405180910390fd5b5f3390503460015f8373ffffffffffffffffffffffffffffffffffffffff1673ffffffffffffffffffffffffffffffffffffffff1681526020019081526020015f205f8282546102ed9190610c77565b925050819055503460025f8282546103059190610c77565b925050819055508073ffffffffffffffffffffffffffffffffffffffff167f106aac375bbcf013d1e52338bbf9e740009a1a3a6869f8daa1b72aa1620f5fec3442604051610354929190610caa565b60405180910390a26103a33360015f3373ffffffffffffffffffffffffffffffffffffffff1673ffffffffffffffffffffffffffffffffffffffff1681526020019081526020015f2054610574565b50565b60025481565b5f5f9054906101000a900473ffffffffffffffffffffffffffffffffffffffff1673ffffffffffffffffffffffffffffffffffffffff163373ffffffffffffffffffffffffffffffffffffffff1614610403575f5ffd5b5f4790505f8111610449576040517f08c379a000000000000000000000000000000000000000000000000000000000815260040161044090610d1b565b60405180910390fd5b5f5f9054906101000a900473ffffffffffffffffffffffffffffffffffffffff1673ffffffffffffffffffffffffffffffffffffffff166108fc8290811502906040515f60405180830381858888f193505050501580156104ac573d5f5f3e3d5ffd5b5050565b5f60015f8373ffffffffffffffffffffffffffffffffffffffff1673ffffffffffffffffffffffffffffffffffffffff1681526020019081526020015f20549050919050565b60035481565b6005818154811061050b575f80fd5b905f5260205f2090600202015f91509050805f015f9054906101000a900473ffffffffffffffffffffffffffffffffffffffff16908060010154905082565b5f5f9054906101000a900473ffffffffffffffffffffffffffffffffffffffff1681565b60045481565b5f5f90505b600381101561071c578273ffffffffffffffffffffffffffffffffffffffff16600582815481106105ad576105ac610d39565b5b905f5260205f2090600202015f015f9054906101000a900473ffffffffffffffffffffffffffffffffffffffff1673ffffffffffffffffffffffffffffffffffffffff160361063d57816005828154811061060b5761060a610d39565b5b905f5260205f2090600202016001015f8282546106289190610c77565b92505081905550610637610722565b5061071e565b600560028154811061065257610651610d39565b5b905f5260205f2090600202016001015482111561070f5760405180604001604052808473ffffffffffffffffffffffffffffffffffffffff1681526020018381525060056002815481106106a9576106a8610d39565b5b905f5260205f2090600202015f820151815f015f6101000a81548173ffffffffffffffffffffffffffffffffffffffff021916908373ffffffffffffffffffffffffffffffffffffffff1602179055506020820151816001015590505061070e610722565b5b8080600101915050610579565b505b5050565b5f5f90505b600281101561097b575f5f90505b600281101561096d57600560018261074d9190610c77565b8154811061075e5761075d610d39565b5b905f5260205f209060020201600101546005828154811061078257610781610d39565b5b905f5260205f209060020201600101541015610960575f600582815481106107ad576107ac610d39565b5b905f5260205f2090600202016040518060400160405290815f82015f9054906101000a900473ffffffffffffffffffffffffffffffffffffffff1673ffffffffffffffffffffffffffffffffffffffff1673ffffffffffffffffffffffffffffffffffffffff168152602001600182015481525050905060056001836108339190610c77565b8154811061084457610843610d39565b5b905f5260205f2090600202016005838154811061086457610863610d39565b5b905f5260205f2090600202015f82015f9054906101000a900473ffffffffffffffffffffffffffffffffffffffff16815f015f6101000a81548173ffffffffffffffffffffffffffffffffffffffff021916908373ffffffffffffffffffffffffffffffffffffffff160217905550600182015481600101559050508060056001846108f09190610c77565b8154811061090157610900610d39565b5b905f5260205f2090600202015f820151815f015f6101000a81548173ffffffffffffffffffffffffffffffffffffffff021916908373ffffffffffffffffffffffffffffffffffffffff16021790555060208201518160010155905050505b8080600101915050610735565b508080600101915050610727565b50565b5f819050919050565b6109908161097e565b82525050565b5f6020820190506109a95f830184610987565b92915050565b5f5ffd5b5f73ffffffffffffffffffffffffffffffffffffffff82169050919050565b5f6109dc826109b3565b9050919050565b6109ec816109d2565b81146109f6575f5ffd5b50565b5f81359050610a07816109e3565b92915050565b5f60208284031215610a2257610a216109af565b5b5f610a2f848285016109f9565b91505092915050565b610a418161097e565b8114610a4b575f5ffd5b50565b5f81359050610a5c81610a38565b92915050565b5f60208284031215610a7757610a766109af565b5b5f610a8484828501610a4e565b91505092915050565b610a96816109d2565b82525050565b5f604082019050610aaf5f830185610a8d565b610abc6020830184610987565b9392505050565b5f602082019050610ad65f830184610a8d565b92915050565b5f82825260208201905092915050565b7f446f6e6174696f6e206973206e6f7420737461727465640000000000000000005f82015250565b5f610b20601783610adc565b9150610b2b82610aec565b602082019050919050565b5f6020820190508181035f830152610b4d81610b14565b9050919050565b7f446f6e6174696f6e20706572696f64206973206f7665720000000000000000005f82015250565b5f610b88601783610adc565b9150610b9382610b54565b602082019050919050565b5f6020820190508181035f830152610bb581610b7c565b9050919050565b7f446f6e6174696f6e20616d6f756e74206d7573742062652067726561746572205f8201527f7468616e20300000000000000000000000000000000000000000000000000000602082015250565b5f610c16602683610adc565b9150610c2182610bbc565b604082019050919050565b5f6020820190508181035f830152610c4381610c0a565b9050919050565b7f4e487b71000000000000000000000000000000000000000000000000000000005f52601160045260245ffd5b5f610c818261097e565b9150610c8c8361097e565b9250828201905080821115610ca457610ca3610c4a565b5b92915050565b5f604082019050610cbd5f830185610987565b610cca6020830184610987565b9392505050565b7f4e6f7420656e6f7567682066756e647320746f2077697468647261772e0000005f82015250565b5f610d05601d83610adc565b9150610d1082610cd1565b602082019050919050565b5f6020820190508181035f830152610d3281610cf9565b9050919050565b7f4e487b71000000000000000000000000000000000000000000000000000000005f52603260045260245ffdfea2646970667358221220c11aacce681a959b83e5943f85c596f5c9a6906e64efa134a3b0ff00975296f464736f6c634300081e0033",
					"opcodes": "PUSH1 0x80 PUSH1 0x40 MSTORE CALLVALUE DUP1 ISZERO PUSH2 0xF JUMPI PUSH0 PUSH0 REVERT JUMPDEST POP PUSH1 0x40 MLOAD PUSH2 0xF4A CODESIZE SUB DUP1 PUSH2 0xF4A DUP4 CODECOPY DUP2 DUP2 ADD PUSH1 0x40 MSTORE DUP2 ADD SWAP1 PUSH2 0x31 SWAP2 SWAP1 PUSH2 0xD5 JUMP JUMPDEST CALLER PUSH0 PUSH0 PUSH2 0x100 EXP DUP2 SLOAD DUP2 PUSH20 0xFFFFFFFFFFFFFFFFFFFFFFFFFFFFFFFFFFFFFFFF MUL NOT AND SWAP1 DUP4 PUSH20 0xFFFFFFFFFFFFFFFFFFFFFFFFFFFFFFFFFFFFFFFF AND MUL OR SWAP1 SSTORE POP TIMESTAMP PUSH1 0x3 DUP2 SWAP1 SSTORE POP PUSH2 0xE10 DUP2 PUSH2 0x85 SWAP2 SWAP1 PUSH2 0x12D JUMP JUMPDEST PUSH1 0x3 SLOAD PUSH2 0x92 SWAP2 SWAP1 PUSH2 0x16E JUMP JUMPDEST PUSH1 0x4 DUP2 SWAP1 SSTORE POP POP PUSH2 0x1A1 JUMP JUMPDEST PUSH0 PUSH0 REVERT JUMPDEST PUSH0 DUP2 SWAP1 POP SWAP2 SWAP1 POP JUMP JUMPDEST PUSH2 0xB4 DUP2 PUSH2 0xA2 JUMP JUMPDEST DUP2 EQ PUSH2 0xBE JUMPI PUSH0 PUSH0 REVERT JUMPDEST POP JUMP JUMPDEST PUSH0 DUP2 MLOAD SWAP1 POP PUSH2 0xCF DUP2 PUSH2 0xAB JUMP JUMPDEST SWAP3 SWAP2 POP POP JUMP JUMPDEST PUSH0 PUSH1 0x20 DUP3 DUP5 SUB SLT ISZERO PUSH2 0xEA JUMPI PUSH2 0xE9 PUSH2 0x9E JUMP JUMPDEST JUMPDEST PUSH0 PUSH2 0xF7 DUP5 DUP3 DUP6 ADD PUSH2 0xC1 JUMP JUMPDEST SWAP2 POP POP SWAP3 SWAP2 POP POP JUMP JUMPDEST PUSH32 0x4E487B7100000000000000000000000000000000000000000000000000000000 PUSH0 MSTORE PUSH1 0x11 PUSH1 0x4 MSTORE PUSH1 0x24 PUSH0 REVERT JUMPDEST PUSH0 PUSH2 0x137 DUP3 PUSH2 0xA2 JUMP JUMPDEST SWAP2 POP PUSH2 0x142 DUP4 PUSH2 0xA2 JUMP JUMPDEST SWAP3 POP DUP3 DUP3 MUL PUSH2 0x150 DUP2 PUSH2 0xA2 JUMP JUMPDEST SWAP2 POP DUP3 DUP3 DIV DUP5 EQ DUP4 ISZERO OR PUSH2 0x167 JUMPI PUSH2 0x166 PUSH2 0x100 JUMP JUMPDEST JUMPDEST POP SWAP3 SWAP2 POP POP JUMP JUMPDEST PUSH0 PUSH2 0x178 DUP3 PUSH2 0xA2 JUMP JUMPDEST SWAP2 POP PUSH2 0x183 DUP4 PUSH2 0xA2 JUMP JUMPDEST SWAP3 POP DUP3 DUP3 ADD SWAP1 POP DUP1 DUP3 GT ISZERO PUSH2 0x19B JUMPI PUSH2 0x19A PUSH2 0x100 JUMP JUMPDEST JUMPDEST SWAP3 SWAP2 POP POP JUMP JUMPDEST PUSH2 0xD9C DUP1 PUSH2 0x1AE PUSH0 CODECOPY PUSH0 RETURN INVALID PUSH1 0x80 PUSH1 0x40 MSTORE PUSH1 0x4 CALLDATASIZE LT PUSH2 0x7E JUMPI PUSH0 CALLDATALOAD PUSH1 0xE0 SHR DUP1 PUSH4 0x835B6B82 GT PUSH2 0x4D JUMPI DUP1 PUSH4 0x835B6B82 EQ PUSH2 0x12B JUMPI DUP1 PUSH4 0x8DA5CB5B EQ PUSH2 0x168 JUMPI DUP1 PUSH4 0xED88C68E EQ PUSH2 0x192 JUMPI DUP1 PUSH4 0xF12A4A53 EQ PUSH2 0x19C JUMPI PUSH2 0x8D JUMP JUMPDEST DUP1 PUSH4 0x20FA44CD EQ PUSH2 0x91 JUMPI DUP1 PUSH4 0x3CCFD60B EQ PUSH2 0xBB JUMPI DUP1 PUSH4 0x410A1D32 EQ PUSH2 0xC5 JUMPI DUP1 PUSH4 0x78331552 EQ PUSH2 0x101 JUMPI PUSH2 0x8D JUMP JUMPDEST CALLDATASIZE PUSH2 0x8D JUMPI PUSH2 0x8B PUSH2 0x1C6 JUMP JUMPDEST STOP JUMPDEST PUSH0 PUSH0 REVERT JUMPDEST CALLVALUE DUP1 ISZERO PUSH2 0x9C JUMPI PUSH0 PUSH0 REVERT JUMPDEST POP PUSH2 0xA5 PUSH2 0x3A6 JUMP JUMPDEST PUSH1 0x40 MLOAD PUSH2 0xB2 SWAP2 SWAP1 PUSH2 0x996 JUMP JUMPDEST PUSH1 0x40 MLOAD DUP1 SWAP2 SUB SWAP1 RETURN JUMPDEST PUSH2 0xC3 PUSH2 0x3AC JUMP JUMPDEST STOP JUMPDEST CALLVALUE DUP1 ISZERO PUSH2 0xD0 JUMPI PUSH0 PUSH0 REVERT JUMPDEST POP PUSH2 0xEB PUSH1 0x4 DUP1 CALLDATASIZE SUB DUP2 ADD SWAP1 PUSH2 0xE6 SWAP2 SWAP1 PUSH2 0xA0D JUMP JUMPDEST PUSH2 0x4B0 JUMP JUMPDEST PUSH1 0x40 MLOAD PUSH2 0xF8 SWAP2 SWAP1 PUSH2 0x996 JUMP JUMPDEST PUSH1 0x40 MLOAD DUP1 SWAP2 SUB SWAP1 RETURN JUMPDEST CALLVALUE DUP1 ISZERO PUSH2 0x10C JUMPI PUSH0 PUSH0 REVERT JUMPDEST POP PUSH2 0x115 PUSH2 0x4F6 JUMP JUMPDEST PUSH1 0x40 MLOAD PUSH2 0x122 SWAP2 SWAP1 PUSH2 0x996 JUMP JUMPDEST PUSH1 0x40 MLOAD DUP1 SWAP2 SUB SWAP1 RETURN JUMPDEST CALLVALUE DUP1 ISZERO PUSH2 0x136 JUMPI PUSH0 PUSH0 REVERT JUMPDEST POP PUSH2 0x151 PUSH1 0x4 DUP1 CALLDATASIZE SUB DUP2 ADD SWAP1 PUSH2 0x14C SWAP2 SWAP1 PUSH2 0xA62 JUMP JUMPDEST PUSH2 0x4FC JUMP JUMPDEST PUSH1 0x40 MLOAD PUSH2 0x15F SWAP3 SWAP2 SWAP1 PUSH2 0xA9C JUMP JUMPDEST PUSH1 0x40 MLOAD DUP1 SWAP2 SUB SWAP1 RETURN JUMPDEST CALLVALUE DUP1 ISZERO PUSH2 0x173 JUMPI PUSH0 PUSH0 REVERT JUMPDEST POP PUSH2 0x17C PUSH2 0x54A JUMP JUMPDEST PUSH1 0x40 MLOAD PUSH2 0x189 SWAP2 SWAP1 PUSH2 0xAC3 JUMP JUMPDEST PUSH1 0x40 MLOAD DUP1 SWAP2 SUB SWAP1 RETURN JUMPDEST PUSH2 0x19A PUSH2 0x1C6 JUMP JUMPDEST STOP JUMPDEST CALLVALUE DUP1 ISZERO PUSH2 0x1A7 JUMPI PUSH0 PUSH0 REVERT JUMPDEST POP PUSH2 0x1B0 PUSH2 0x56E JUMP JUMPDEST PUSH1 0x40 MLOAD PUSH2 0x1BD SWAP2 SWAP1 PUSH2 0x996 JUMP JUMPDEST PUSH1 0x40 MLOAD DUP1 SWAP2 SUB SWAP1 RETURN JUMPDEST PUSH1 0x3 SLOAD TIMESTAMP GT PUSH2 0x20A JUMPI PUSH1 0x40 MLOAD PUSH32 0x8C379A000000000000000000000000000000000000000000000000000000000 DUP2 MSTORE PUSH1 0x4 ADD PUSH2 0x201 SWAP1 PUSH2 0xB36 JUMP JUMPDEST PUSH1 0x40 MLOAD DUP1 SWAP2 SUB SWAP1 REVERT JUMPDEST PUSH1 0x3 SLOAD TIMESTAMP GT DUP1 ISZERO PUSH2 0x21C JUMPI POP PUSH1 0x4 SLOAD TIMESTAMP LT JUMPDEST PUSH2 0x25B JUMPI PUSH1 0x40 MLOAD PUSH32 0x8C379A000000000000000000000000000000000000000000000000000000000 DUP2 MSTORE PUSH1 0x4 ADD PUSH2 0x252 SWAP1 PUSH2 0xB9E JUMP JUMPDEST PUSH1 0x40 MLOAD DUP1 SWAP2 SUB SWAP1 REVERT JUMPDEST PUSH0 CALLVALUE GT PUSH2 0x29D JUMPI PUSH1 0x40 MLOAD PUSH32 0x8C379A000000000000000000000000000000000000000000000000000000000 DUP2 MSTORE PUSH1 0x4 ADD PUSH2 0x294 SWAP1 PUSH2 0xC2C JUMP JUMPDEST PUSH1 0x40 MLOAD DUP1 SWAP2 SUB SWAP1 REVERT JUMPDEST PUSH0 CALLER SWAP1 POP CALLVALUE PUSH1 0x1 PUSH0 DUP4 PUSH20 0xFFFFFFFFFFFFFFFFFFFFFFFFFFFFFFFFFFFFFFFF AND PUSH20 0xFFFFFFFFFFFFFFFFFFFFFFFFFFFFFFFFFFFFFFFF AND DUP2 MSTORE PUSH1 0x20 ADD SWAP1 DUP2 MSTORE PUSH1 0x20 ADD PUSH0 KECCAK256 PUSH0 DUP3 DUP3 SLOAD PUSH2 0x2ED SWAP2 SWAP1 PUSH2 0xC77 JUMP JUMPDEST SWAP3 POP POP DUP2 SWAP1 SSTORE POP CALLVALUE PUSH1 0x2 PUSH0 DUP3 DUP3 SLOAD PUSH2 0x305 SWAP2 SWAP1 PUSH2 0xC77 JUMP JUMPDEST SWAP3 POP POP DUP2 SWAP1 SSTORE POP DUP1 PUSH20 0xFFFFFFFFFFFFFFFFFFFFFFFFFFFFFFFFFFFFFFFF AND PUSH32 0x106AAC375BBCF013D1E52338BBF9E740009A1A3A6869F8DAA1B72AA1620F5FEC CALLVALUE TIMESTAMP PUSH1 0x40 MLOAD PUSH2 0x354 SWAP3 SWAP2 SWAP1 PUSH2 0xCAA JUMP JUMPDEST PUSH1 0x40 MLOAD DUP1 SWAP2 SUB SWAP1 LOG2 PUSH2 0x3A3 CALLER PUSH1 0x1 PUSH0 CALLER PUSH20 0xFFFFFFFFFFFFFFFFFFFFFFFFFFFFFFFFFFFFFFFF AND PUSH20 0xFFFFFFFFFFFFFFFFFFFFFFFFFFFFFFFFFFFFFFFF AND DUP2 MSTORE PUSH1 0x20 ADD SWAP1 DUP2 MSTORE PUSH1 0x20 ADD PUSH0 KECCAK256 SLOAD PUSH2 0x574 JUMP JUMPDEST POP JUMP JUMPDEST PUSH1 0x2 SLOAD DUP2 JUMP JUMPDEST PUSH0 PUSH0 SWAP1 SLOAD SWAP1 PUSH2 0x100 EXP SWAP1 DIV PUSH20 0xFFFFFFFFFFFFFFFFFFFFFFFFFFFFFFFFFFFFFFFF AND PUSH20 0xFFFFFFFFFFFFFFFFFFFFFFFFFFFFFFFFFFFFFFFF AND CALLER PUSH20 0xFFFFFFFFFFFFFFFFFFFFFFFFFFFFFFFFFFFFFFFF AND EQ PUSH2 0x403 JUMPI PUSH0 PUSH0 REVERT JUMPDEST PUSH0 SELFBALANCE SWAP1 POP PUSH0 DUP2 GT PUSH2 0x449 JUMPI PUSH1 0x40 MLOAD PUSH32 0x8C379A000000000000000000000000000000000000000000000000000000000 DUP2 MSTORE PUSH1 0x4 ADD PUSH2 0x440 SWAP1 PUSH2 0xD1B JUMP JUMPDEST PUSH1 0x40 MLOAD DUP1 SWAP2 SUB SWAP1 REVERT JUMPDEST PUSH0 PUSH0 SWAP1 SLOAD SWAP1 PUSH2 0x100 EXP SWAP1 DIV PUSH20 0xFFFFFFFFFFFFFFFFFFFFFFFFFFFFFFFFFFFFFFFF AND PUSH20 0xFFFFFFFFFFFFFFFFFFFFFFFFFFFFFFFFFFFFFFFF AND PUSH2 0x8FC DUP3 SWAP1 DUP2 ISZERO MUL SWAP1 PUSH1 0x40 MLOAD PUSH0 PUSH1 0x40 MLOAD DUP1 DUP4 SUB DUP2 DUP6 DUP9 DUP9 CALL SWAP4 POP POP POP POP ISZERO DUP1 ISZERO PUSH2 0x4AC JUMPI RETURNDATASIZE PUSH0 PUSH0 RETURNDATACOPY RETURNDATASIZE PUSH0 REVERT JUMPDEST POP POP JUMP JUMPDEST PUSH0 PUSH1 0x1 PUSH0 DUP4 PUSH20 0xFFFFFFFFFFFFFFFFFFFFFFFFFFFFFFFFFFFFFFFF AND PUSH20 0xFFFFFFFFFFFFFFFFFFFFFFFFFFFFFFFFFFFFFFFF AND DUP2 MSTORE PUSH1 0x20 ADD SWAP1 DUP2 MSTORE PUSH1 0x20 ADD PUSH0 KECCAK256 SLOAD SWAP1 POP SWAP2 SWAP1 POP JUMP JUMPDEST PUSH1 0x3 SLOAD DUP2 JUMP JUMPDEST PUSH1 0x5 DUP2 DUP2 SLOAD DUP2 LT PUSH2 0x50B JUMPI PUSH0 DUP1 REVERT JUMPDEST SWAP1 PUSH0 MSTORE PUSH1 0x20 PUSH0 KECCAK256 SWAP1 PUSH1 0x2 MUL ADD PUSH0 SWAP2 POP SWAP1 POP DUP1 PUSH0 ADD PUSH0 SWAP1 SLOAD SWAP1 PUSH2 0x100 EXP SWAP1 DIV PUSH20 0xFFFFFFFFFFFFFFFFFFFFFFFFFFFFFFFFFFFFFFFF AND SWAP1 DUP1 PUSH1 0x1 ADD SLOAD SWAP1 POP DUP3 JUMP JUMPDEST PUSH0 PUSH0 SWAP1 SLOAD SWAP1 PUSH2 0x100 EXP SWAP1 DIV PUSH20 0xFFFFFFFFFFFFFFFFFFFFFFFFFFFFFFFFFFFFFFFF AND DUP2 JUMP JUMPDEST PUSH1 0x4 SLOAD DUP2 JUMP JUMPDEST PUSH0 PUSH0 SWAP1 POP JUMPDEST PUSH1 0x3 DUP2 LT ISZERO PUSH2 0x71C JUMPI DUP3 PUSH20 0xFFFFFFFFFFFFFFFFFFFFFFFFFFFFFFFFFFFFFFFF AND PUSH1 0x5 DUP3 DUP2 SLOAD DUP2 LT PUSH2 0x5AD JUMPI PUSH2 0x5AC PUSH2 0xD39 JUMP JUMPDEST JUMPDEST SWAP1 PUSH0 MSTORE PUSH1 0x20 PUSH0 KECCAK256 SWAP1 PUSH1 0x2 MUL ADD PUSH0 ADD PUSH0 SWAP1 SLOAD SWAP1 PUSH2 0x100 EXP SWAP1 DIV PUSH20 0xFFFFFFFFFFFFFFFFFFFFFFFFFFFFFFFFFFFFFFFF AND PUSH20 0xFFFFFFFFFFFFFFFFFFFFFFFFFFFFFFFFFFFFFFFF AND SUB PUSH2 0x63D JUMPI DUP2 PUSH1 0x5 DUP3 DUP2 SLOAD DUP2 LT PUSH2 0x60B JUMPI PUSH2 0x60A PUSH2 0xD39 JUMP JUMPDEST JUMPDEST SWAP1 PUSH0 MSTORE PUSH1 0x20 PUSH0 KECCAK256 SWAP1 PUSH1 0x2 MUL ADD PUSH1 0x1 ADD PUSH0 DUP3 DUP3 SLOAD PUSH2 0x628 SWAP2 SWAP1 PUSH2 0xC77 JUMP JUMPDEST SWAP3 POP POP DUP2 SWAP1 SSTORE POP PUSH2 0x637 PUSH2 0x722 JUMP JUMPDEST POP PUSH2 0x71E JUMP JUMPDEST PUSH1 0x5 PUSH1 0x2 DUP2 SLOAD DUP2 LT PUSH2 0x652 JUMPI PUSH2 0x651 PUSH2 0xD39 JUMP JUMPDEST JUMPDEST SWAP1 PUSH0 MSTORE PUSH1 0x20 PUSH0 KECCAK256 SWAP1 PUSH1 0x2 MUL ADD PUSH1 0x1 ADD SLOAD DUP3 GT ISZERO PUSH2 0x70F JUMPI PUSH1 0x40 MLOAD DUP1 PUSH1 0x40 ADD PUSH1 0x40 MSTORE DUP1 DUP5 PUSH20 0xFFFFFFFFFFFFFFFFFFFFFFFFFFFFFFFFFFFFFFFF AND DUP2 MSTORE PUSH1 0x20 ADD DUP4 DUP2 MSTORE POP PUSH1 0x5 PUSH1 0x2 DUP2 SLOAD DUP2 LT PUSH2 0x6A9 JUMPI PUSH2 0x6A8 PUSH2 0xD39 JUMP JUMPDEST JUMPDEST SWAP1 PUSH0 MSTORE PUSH1 0x20 PUSH0 KECCAK256 SWAP1 PUSH1 0x2 MUL ADD PUSH0 DUP3 ADD MLOAD DUP2 PUSH0 ADD PUSH0 PUSH2 0x100 EXP DUP2 SLOAD DUP2 PUSH20 0xFFFFFFFFFFFFFFFFFFFFFFFFFFFFFFFFFFFFFFFF MUL NOT AND SWAP1 DUP4 PUSH20 0xFFFFFFFFFFFFFFFFFFFFFFFFFFFFFFFFFFFFFFFF AND MUL OR SWAP1 SSTORE POP PUSH1 0x20 DUP3 ADD MLOAD DUP2 PUSH1 0x1 ADD SSTORE SWAP1 POP POP PUSH2 0x70E PUSH2 0x722 JUMP JUMPDEST JUMPDEST DUP1 DUP1 PUSH1 0x1 ADD SWAP2 POP POP PUSH2 0x579 JUMP JUMPDEST POP JUMPDEST POP POP JUMP JUMPDEST PUSH0 PUSH0 SWAP1 POP JUMPDEST PUSH1 0x2 DUP2 LT ISZERO PUSH2 0x97B JUMPI PUSH0 PUSH0 SWAP1 POP JUMPDEST PUSH1 0x2 DUP2 LT ISZERO PUSH2 0x96D JUMPI PUSH1 0x5 PUSH1 0x1 DUP3 PUSH2 0x74D SWAP2 SWAP1 PUSH2 0xC77 JUMP JUMPDEST DUP2 SLOAD DUP2 LT PUSH2 0x75E JUMPI PUSH2 0x75D PUSH2 0xD39 JUMP JUMPDEST JUMPDEST SWAP1 PUSH0 MSTORE PUSH1 0x20 PUSH0 KECCAK256 SWAP1 PUSH1 0x2 MUL ADD PUSH1 0x1 ADD SLOAD PUSH1 0x5 DUP3 DUP2 SLOAD DUP2 LT PUSH2 0x782 JUMPI PUSH2 0x781 PUSH2 0xD39 JUMP JUMPDEST JUMPDEST SWAP1 PUSH0 MSTORE PUSH1 0x20 PUSH0 KECCAK256 SWAP1 PUSH1 0x2 MUL ADD PUSH1 0x1 ADD SLOAD LT ISZERO PUSH2 0x960 JUMPI PUSH0 PUSH1 0x5 DUP3 DUP2 SLOAD DUP2 LT PUSH2 0x7AD JUMPI PUSH2 0x7AC PUSH2 0xD39 JUMP JUMPDEST JUMPDEST SWAP1 PUSH0 MSTORE PUSH1 0x20 PUSH0 KECCAK256 SWAP1 PUSH1 0x2 MUL ADD PUSH1 0x40 MLOAD DUP1 PUSH1 0x40 ADD PUSH1 0x40 MSTORE SWAP1 DUP2 PUSH0 DUP3 ADD PUSH0 SWAP1 SLOAD SWAP1 PUSH2 0x100 EXP SWAP1 DIV PUSH20 0xFFFFFFFFFFFFFFFFFFFFFFFFFFFFFFFFFFFFFFFF AND PUSH20 0xFFFFFFFFFFFFFFFFFFFFFFFFFFFFFFFFFFFFFFFF AND PUSH20 0xFFFFFFFFFFFFFFFFFFFFFFFFFFFFFFFFFFFFFFFF AND DUP2 MSTORE PUSH1 0x20 ADD PUSH1 0x1 DUP3 ADD SLOAD DUP2 MSTORE POP POP SWAP1 POP PUSH1 0x5 PUSH1 0x1 DUP4 PUSH2 0x833 SWAP2 SWAP1 PUSH2 0xC77 JUMP JUMPDEST DUP2 SLOAD DUP2 LT PUSH2 0x844 JUMPI PUSH2 0x843 PUSH2 0xD39 JUMP JUMPDEST JUMPDEST SWAP1 PUSH0 MSTORE PUSH1 0x20 PUSH0 KECCAK256 SWAP1 PUSH1 0x2 MUL ADD PUSH1 0x5 DUP4 DUP2 SLOAD DUP2 LT PUSH2 0x864 JUMPI PUSH2 0x863 PUSH2 0xD39 JUMP JUMPDEST JUMPDEST SWAP1 PUSH0 MSTORE PUSH1 0x20 PUSH0 KECCAK256 SWAP1 PUSH1 0x2 MUL ADD PUSH0 DUP3 ADD PUSH0 SWAP1 SLOAD SWAP1 PUSH2 0x100 EXP SWAP1 DIV PUSH20 0xFFFFFFFFFFFFFFFFFFFFFFFFFFFFFFFFFFFFFFFF AND DUP2 PUSH0 ADD PUSH0 PUSH2 0x100 EXP DUP2 SLOAD DUP2 PUSH20 0xFFFFFFFFFFFFFFFFFFFFFFFFFFFFFFFFFFFFFFFF MUL NOT AND SWAP1 DUP4 PUSH20 0xFFFFFFFFFFFFFFFFFFFFFFFFFFFFFFFFFFFFFFFF AND MUL OR SWAP1 SSTORE POP PUSH1 0x1 DUP3 ADD SLOAD DUP2 PUSH1 0x1 ADD SSTORE SWAP1 POP POP DUP1 PUSH1 0x5 PUSH1 0x1 DUP5 PUSH2 0x8F0 SWAP2 SWAP1 PUSH2 0xC77 JUMP JUMPDEST DUP2 SLOAD DUP2 LT PUSH2 0x901 JUMPI PUSH2 0x900 PUSH2 0xD39 JUMP JUMPDEST JUMPDEST SWAP1 PUSH0 MSTORE PUSH1 0x20 PUSH0 KECCAK256 SWAP1 PUSH1 0x2 MUL ADD PUSH0 DUP3 ADD MLOAD DUP2 PUSH0 ADD PUSH0 PUSH2 0x100 EXP DUP2 SLOAD DUP2 PUSH20 0xFFFFFFFFFFFFFFFFFFFFFFFFFFFFFFFFFFFFFFFF MUL NOT AND SWAP1 DUP4 PUSH20 0xFFFFFFFFFFFFFFFFFFFFFFFFFFFFFFFFFFFFFFFF AND MUL OR SWAP1 SSTORE POP PUSH1 0x20 DUP3 ADD MLOAD DUP2 PUSH1 0x1 ADD SSTORE SWAP1 POP POP POP JUMPDEST DUP1 DUP1 PUSH1 0x1 ADD SWAP2 POP POP PUSH2 0x735 JUMP JUMPDEST POP DUP1 DUP1 PUSH1 0x1 ADD SWAP2 POP POP PUSH2 0x727 JUMP JUMPDEST POP JUMP JUMPDEST PUSH0 DUP2 SWAP1 POP SWAP2 SWAP1 POP JUMP JUMPDEST PUSH2 0x990 DUP2 PUSH2 0x97E JUMP JUMPDEST DUP3 MSTORE POP POP JUMP JUMPDEST PUSH0 PUSH1 0x20 DUP3 ADD SWAP1 POP PUSH2 0x9A9 PUSH0 DUP4 ADD DUP5 PUSH2 0x987 JUMP JUMPDEST SWAP3 SWAP2 POP POP JUMP JUMPDEST PUSH0 PUSH0 REVERT JUMPDEST PUSH0 PUSH20 0xFFFFFFFFFFFFFFFFFFFFFFFFFFFFFFFFFFFFFFFF DUP3 AND SWAP1 POP SWAP2 SWAP1 POP JUMP JUMPDEST PUSH0 PUSH2 0x9DC DUP3 PUSH2 0x9B3 JUMP JUMPDEST SWAP1 POP SWAP2 SWAP1 POP JUMP JUMPDEST PUSH2 0x9EC DUP2 PUSH2 0x9D2 JUMP JUMPDEST DUP2 EQ PUSH2 0x9F6 JUMPI PUSH0 PUSH0 REVERT JUMPDEST POP JUMP JUMPDEST PUSH0 DUP2 CALLDATALOAD SWAP1 POP PUSH2 0xA07 DUP2 PUSH2 0x9E3 JUMP JUMPDEST SWAP3 SWAP2 POP POP JUMP JUMPDEST PUSH0 PUSH1 0x20 DUP3 DUP5 SUB SLT ISZERO PUSH2 0xA22 JUMPI PUSH2 0xA21 PUSH2 0x9AF JUMP JUMPDEST JUMPDEST PUSH0 PUSH2 0xA2F DUP5 DUP3 DUP6 ADD PUSH2 0x9F9 JUMP JUMPDEST SWAP2 POP POP SWAP3 SWAP2 POP POP JUMP JUMPDEST PUSH2 0xA41 DUP2 PUSH2 0x97E JUMP JUMPDEST DUP2 EQ PUSH2 0xA4B JUMPI PUSH0 PUSH0 REVERT JUMPDEST POP JUMP JUMPDEST PUSH0 DUP2 CALLDATALOAD SWAP1 POP PUSH2 0xA5C DUP2 PUSH2 0xA38 JUMP JUMPDEST SWAP3 SWAP2 POP POP JUMP JUMPDEST PUSH0 PUSH1 0x20 DUP3 DUP5 SUB SLT ISZERO PUSH2 0xA77 JUMPI PUSH2 0xA76 PUSH2 0x9AF JUMP JUMPDEST JUMPDEST PUSH0 PUSH2 0xA84 DUP5 DUP3 DUP6 ADD PUSH2 0xA4E JUMP JUMPDEST SWAP2 POP POP SWAP3 SWAP2 POP POP JUMP JUMPDEST PUSH2 0xA96 DUP2 PUSH2 0x9D2 JUMP JUMPDEST DUP3 MSTORE POP POP JUMP JUMPDEST PUSH0 PUSH1 0x40 DUP3 ADD SWAP1 POP PUSH2 0xAAF PUSH0 DUP4 ADD DUP6 PUSH2 0xA8D JUMP JUMPDEST PUSH2 0xABC PUSH1 0x20 DUP4 ADD DUP5 PUSH2 0x987 JUMP JUMPDEST SWAP4 SWAP3 POP POP POP JUMP JUMPDEST PUSH0 PUSH1 0x20 DUP3 ADD SWAP1 POP PUSH2 0xAD6 PUSH0 DUP4 ADD DUP5 PUSH2 0xA8D JUMP JUMPDEST SWAP3 SWAP2 POP POP JUMP JUMPDEST PUSH0 DUP3 DUP3 MSTORE PUSH1 0x20 DUP3 ADD SWAP1 POP SWAP3 SWAP2 POP POP JUMP JUMPDEST PUSH32 0x446F6E6174696F6E206973206E6F742073746172746564000000000000000000 PUSH0 DUP3 ADD MSTORE POP JUMP JUMPDEST PUSH0 PUSH2 0xB20 PUSH1 0x17 DUP4 PUSH2 0xADC JUMP JUMPDEST SWAP2 POP PUSH2 0xB2B DUP3 PUSH2 0xAEC JUMP JUMPDEST PUSH1 0x20 DUP3 ADD SWAP1 POP SWAP2 SWAP1 POP JUMP JUMPDEST PUSH0 PUSH1 0x20 DUP3 ADD SWAP1 POP DUP2 DUP2 SUB PUSH0 DUP4 ADD MSTORE PUSH2 0xB4D DUP2 PUSH2 0xB14 JUMP JUMPDEST SWAP1 POP SWAP2 SWAP1 POP JUMP JUMPDEST PUSH32 0x446F6E6174696F6E20706572696F64206973206F766572000000000000000000 PUSH0 DUP3 ADD MSTORE POP JUMP JUMPDEST PUSH0 PUSH2 0xB88 PUSH1 0x17 DUP4 PUSH2 0xADC JUMP JUMPDEST SWAP2 POP PUSH2 0xB93 DUP3 PUSH2 0xB54 JUMP JUMPDEST PUSH1 0x20 DUP3 ADD SWAP1 POP SWAP2 SWAP1 POP JUMP JUMPDEST PUSH0 PUSH1 0x20 DUP3 ADD SWAP1 POP DUP2 DUP2 SUB PUSH0 DUP4 ADD MSTORE PUSH2 0xBB5 DUP2 PUSH2 0xB7C JUMP JUMPDEST SWAP1 POP SWAP2 SWAP1 POP JUMP JUMPDEST PUSH32 0x446F6E6174696F6E20616D6F756E74206D757374206265206772656174657220 PUSH0 DUP3 ADD MSTORE PUSH32 0x7468616E20300000000000000000000000000000000000000000000000000000 PUSH1 0x20 DUP3 ADD MSTORE POP JUMP JUMPDEST PUSH0 PUSH2 0xC16 PUSH1 0x26 DUP4 PUSH2 0xADC JUMP JUMPDEST SWAP2 POP PUSH2 0xC21 DUP3 PUSH2 0xBBC JUMP JUMPDEST PUSH1 0x40 DUP3 ADD SWAP1 POP SWAP2 SWAP1 POP JUMP JUMPDEST PUSH0 PUSH1 0x20 DUP3 ADD SWAP1 POP DUP2 DUP2 SUB PUSH0 DUP4 ADD MSTORE PUSH2 0xC43 DUP2 PUSH2 0xC0A JUMP JUMPDEST SWAP1 POP SWAP2 SWAP1 POP JUMP JUMPDEST PUSH32 0x4E487B7100000000000000000000000000000000000000000000000000000000 PUSH0 MSTORE PUSH1 0x11 PUSH1 0x4 MSTORE PUSH1 0x24 PUSH0 REVERT JUMPDEST PUSH0 PUSH2 0xC81 DUP3 PUSH2 0x97E JUMP JUMPDEST SWAP2 POP PUSH2 0xC8C DUP4 PUSH2 0x97E JUMP JUMPDEST SWAP3 POP DUP3 DUP3 ADD SWAP1 POP DUP1 DUP3 GT ISZERO PUSH2 0xCA4 JUMPI PUSH2 0xCA3 PUSH2 0xC4A JUMP JUMPDEST JUMPDEST SWAP3 SWAP2 POP POP JUMP JUMPDEST PUSH0 PUSH1 0x40 DUP3 ADD SWAP1 POP PUSH2 0xCBD PUSH0 DUP4 ADD DUP6 PUSH2 0x987 JUMP JUMPDEST PUSH2 0xCCA PUSH1 0x20 DUP4 ADD DUP5 PUSH2 0x987 JUMP JUMPDEST SWAP4 SWAP3 POP POP POP JUMP JUMPDEST PUSH32 0x4E6F7420656E6F7567682066756E647320746F2077697468647261772E000000 PUSH0 DUP3 ADD MSTORE POP JUMP JUMPDEST PUSH0 PUSH2 0xD05 PUSH1 0x1D DUP4 PUSH2 0xADC JUMP JUMPDEST SWAP2 POP PUSH2 0xD10 DUP3 PUSH2 0xCD1 JUMP JUMPDEST PUSH1 0x20 DUP3 ADD SWAP1 POP SWAP2 SWAP1 POP JUMP JUMPDEST PUSH0 PUSH1 0x20 DUP3 ADD SWAP1 POP DUP2 DUP2 SUB PUSH0 DUP4 ADD MSTORE PUSH2 0xD32 DUP2 PUSH2 0xCF9 JUMP JUMPDEST SWAP1 POP SWAP2 SWAP1 POP JUMP JUMPDEST PUSH32 0x4E487B7100000000000000000000000000000000000000000000000000000000 PUSH0 MSTORE PUSH1 0x32 PUSH1 0x4 MSTORE PUSH1 0x24 PUSH0 REVERT INVALID LOG2 PUSH5 0x6970667358 0x22 SLT KECCAK256 0xC1 BYTE 0xAC 0xCE PUSH9 0x1A959B83E5943F85C5 SWAP7 CREATE2 0xC9 0xA6 SWAP1 PUSH15 0x64EFA134A3B0FF00975296F464736F PUSH13 0x634300081E0033000000000000 "
				},
				"gasEstimates": {
					"creation": {
						"codeDepositCost": "696800",
						"executionCost": "infinite",
						"totalCost": "infinite"
					},
					"external": {
						"donate()": "infinite",
						"donationEndTime()": "2491",
						"donationStartTime()": "2492",
						"getDonation(address)": "2874",
						"owner()": "2529",
						"top3Donors(uint256)": "infinite",
						"totalDonatedAmount()": "2426",
						"withdraw()": "infinite"
					},
					"internal": {
						"_sortTopDonors()": "infinite",
						"updateTopDonors(address,uint256)": "infinite"
					}
				},
				"methodIdentifiers": {
					"donate()": "ed88c68e",
					"donationEndTime()": "f12a4a53",
					"donationStartTime()": "78331552",
					"getDonation(address)": "410a1d32",
					"owner()": "8da5cb5b",
					"top3Donors(uint256)": "835b6b82",
					"totalDonatedAmount()": "20fa44cd",
					"withdraw()": "3ccfd60b"
				}
			},
			"storageLayout": {
				"storage": [
					{
						"astId": 3,
						"contract": "task2/BeggingContract.sol:BeggingContract",
						"label": "owner",
						"offset": 0,
						"slot": "0",
						"type": "t_address"
					},
					{
						"astId": 7,
						"contract": "task2/BeggingContract.sol:BeggingContract",
						"label": "donations",
						"offset": 0,
						"slot": "1",
						"type": "t_mapping(t_address,t_uint256)"
					},
					{
						"astId": 9,
						"contract": "task2/BeggingContract.sol:BeggingContract",
						"label": "totalDonatedAmount",
						"offset": 0,
						"slot": "2",
						"type": "t_uint256"
					},
					{
						"astId": 19,
						"contract": "task2/BeggingContract.sol:BeggingContract",
						"label": "donationStartTime",
						"offset": 0,
						"slot": "3",
						"type": "t_uint256"
					},
					{
						"astId": 21,
						"contract": "task2/BeggingContract.sol:BeggingContract",
						"label": "donationEndTime",
						"offset": 0,
						"slot": "4",
						"type": "t_uint256"
					},
					{
						"astId": 30,
						"contract": "task2/BeggingContract.sol:BeggingContract",
						"label": "top3Donors",
						"offset": 0,
						"slot": "5",
						"type": "t_array(t_struct(TopDonor)26_storage)dyn_storage"
					}
				],
				"types": {
					"t_address": {
						"encoding": "inplace",
						"label": "address",
						"numberOfBytes": "20"
					},
					"t_array(t_struct(TopDonor)26_storage)dyn_storage": {
						"base": "t_struct(TopDonor)26_storage",
						"encoding": "dynamic_array",
						"label": "struct BeggingContract.TopDonor[]",
						"numberOfBytes": "32"
					},
					"t_mapping(t_address,t_uint256)": {
						"encoding": "mapping",
						"key": "t_address",
						"label": "mapping(address => uint256)",
						"numberOfBytes": "32",
						"value": "t_uint256"
					},
					"t_struct(TopDonor)26_storage": {
						"encoding": "inplace",
						"label": "struct BeggingContract.TopDonor",
						"members": [
							{
								"astId": 23,
								"contract": "task2/BeggingContract.sol:BeggingContract",
								"label": "donor",
								"offset": 0,
								"slot": "0",
								"type": "t_address"
							},
							{
								"astId": 25,
								"contract": "task2/BeggingContract.sol:BeggingContract",
								"label": "amount",
								"offset": 0,
								"slot": "1",
								"type": "t_uint256"
							}
						],
						"numberOfBytes": "64"
					},
					"t_uint256": {
						"encoding": "inplace",
						"label": "uint256",
						"numberOfBytes": "32"
					}
				}
			},
			"userdoc": {
				"kind": "user",
				"methods": {},
				"version": 1
			}
		}
	}
}