{
	"data": {
		"bytecode": {
			"linkReferences": {},
			"object": "6080604052348015600e575f5ffd5b5061062b8061001c5f395ff3fe608060405234801561000f575f5ffd5b5060043610610029575f3560e01c8063cb159dfe1461002d575b5f5ffd5b61004760048036038101906100429190610496565b61005d565b60405161005491906104f5565b60405180910390f35b5f5f8290505f5f90505f5f90505f835190505b5f8111156100f3575f84600183610087919061053b565b815181106100985761009761056e565b5b602001015160f81c60f81b90505f6100af826100ff565b9050838110156100cc5780856100c5919061053b565b94506100db565b80856100d8919061059b565b94505b809350505080806100eb906105ce565b915050610070565b50819350505050919050565b5f7f4900000000000000000000000000000000000000000000000000000000000000827effffffffffffffffffffffffffffffffffffffffffffffffffffffffffffff1916036101525760019050610344565b7f5600000000000000000000000000000000000000000000000000000000000000827effffffffffffffffffffffffffffffffffffffffffffffffffffffffffffff1916036101a45760059050610344565b7f5800000000000000000000000000000000000000000000000000000000000000827effffffffffffffffffffffffffffffffffffffffffffffffffffffffffffff1916036101f657600a9050610344565b7f4c00000000000000000000000000000000000000000000000000000000000000827effffffffffffffffffffffffffffffffffffffffffffffffffffffffffffff1916036102485760329050610344565b7f4300000000000000000000000000000000000000000000000000000000000000827effffffffffffffffffffffffffffffffffffffffffffffffffffffffffffff19160361029a5760649050610344565b7f4400000000000000000000000000000000000000000000000000000000000000827effffffffffffffffffffffffffffffffffffffffffffffffffffffffffffff1916036102ed576101f49050610344565b7f4d00000000000000000000000000000000000000000000000000000000000000827effffffffffffffffffffffffffffffffffffffffffffffffffffffffffffff191603610340576103e89050610344565b5f90505b919050565b5f604051905090565b5f5ffd5b5f5ffd5b5f5ffd5b5f5ffd5b5f601f19601f8301169050919050565b7f4e487b71000000000000000000000000000000000000000000000000000000005f52604160045260245ffd5b6103a882610362565b810181811067ffffffffffffffff821117156103c7576103c6610372565b5b80604052505050565b5f6103d9610349565b90506103e5828261039f565b919050565b5f67ffffffffffffffff82111561040457610403610372565b5b61040d82610362565b9050602081019050919050565b828183375f83830152505050565b5f61043a610435846103ea565b6103d0565b9050828152602081018484840111156104565761045561035e565b5b61046184828561041a565b509392505050565b5f82601f83011261047d5761047c61035a565b5b813561048d848260208601610428565b91505092915050565b5f602082840312156104ab576104aa610352565b5b5f82013567ffffffffffffffff8111156104c8576104c7610356565b5b6104d484828501610469565b91505092915050565b5f819050919050565b6104ef816104dd565b82525050565b5f6020820190506105085f8301846104e6565b92915050565b7f4e487b71000000000000000000000000000000000000000000000000000000005f52601160045260245ffd5b5f610545826104dd565b9150610550836104dd565b92508282039050818111156105685761056761050e565b5b92915050565b7f4e487b71000000000000000000000000000000000000000000000000000000005f52603260045260245ffd5b5f6105a5826104dd565b91506105b0836104dd565b92508282019050808211156105c8576105c761050e565b5b92915050565b5f6105d8826104dd565b91505f82036105ea576105e961050e565b5b60018203905091905056fea2646970667358221220866e578ec327cfc0ab7b5cc179b7a14b9a8bd38ff843f41b2e200927cd807b2164736f6c634300081e0033",
			"opcodes": "PUSH1 0x80 PUSH1 0x40 MSTORE CALLVALUE DUP1 ISZERO PUSH1 0xE JUMPI PUSH0 PUSH0 REVERT JUMPDEST POP PUSH2 0x62B DUP1 PUSH2 0x1C PUSH0 CODECOPY PUSH0 RETURN INVALID PUSH1 0x80 PUSH1 0x40 MSTORE CALLVALUE DUP1 ISZERO PUSH2 0xF JUMPI PUSH0 PUSH0 REVERT JUMPDEST POP PUSH1 0x4 CALLDATASIZE LT PUSH2 0x29 JUMPI PUSH0 CALLDATALOAD PUSH1 0xE0 SHR DUP1 PUSH4 0xCB159DFE EQ PUSH2 0x2D JUMPI JUMPDEST PUSH0 PUSH0 REVERT JUMPDEST PUSH2 0x47 PUSH1 0x4 DUP1 CALLDATASIZE SUB DUP2 ADD SWAP1 PUSH2 0x42 SWAP2 SWAP1 PUSH2 0x496 JUMP JUMPDEST PUSH2 0x5D JUMP JUMPDEST PUSH1 0x40 MLOAD PUSH2 0x54 SWAP2 SWAP1 PUSH2 0x4F5 JUMP JUMPDEST PUSH1 0x40 MLOAD DUP1 SWAP2 SUB SWAP1 RETURN JUMPDEST PUSH0 PUSH0 DUP3 SWAP1 POP PUSH0 PUSH0 SWAP1 POP PUSH0 PUSH0 SWAP1 POP PUSH0 DUP4 MLOAD SWAP1 POP JUMPDEST PUSH0 DUP2 GT ISZERO PUSH2 0xF3 JUMPI PUSH0 DUP5 PUSH1 0x1 DUP4 PUSH2 0x87 SWAP2 SWAP1 PUSH2 0x53B JUMP JUMPDEST DUP2 MLOAD DUP2 LT PUSH2 0x98 JUMPI PUSH2 0x97 PUSH2 0x56E JUMP JUMPDEST JUMPDEST PUSH1 0x20 ADD ADD MLOAD PUSH1 0xF8 SHR PUSH1 0xF8 SHL SWAP1 POP PUSH0 PUSH2 0xAF DUP3 PUSH2 0xFF JUMP JUMPDEST SWAP1 POP DUP4 DUP2 LT ISZERO PUSH2 0xCC JUMPI DUP1 DUP6 PUSH2 0xC5 SWAP2 SWAP1 PUSH2 0x53B JUMP JUMPDEST SWAP5 POP PUSH2 0xDB JUMP JUMPDEST DUP1 DUP6 PUSH2 0xD8 SWAP2 SWAP1 PUSH2 0x59B JUMP JUMPDEST SWAP5 POP JUMPDEST DUP1 SWAP4 POP POP POP DUP1 DUP1 PUSH2 0xEB SWAP1 PUSH2 0x5CE JUMP JUMPDEST SWAP2 POP POP PUSH2 0x70 JUMP JUMPDEST POP DUP2 SWAP4 POP POP POP POP SWAP2 SWAP1 POP JUMP JUMPDEST PUSH0 PUSH32 0x4900000000000000000000000000000000000000000000000000000000000000 DUP3 PUSH31 0xFFFFFFFFFFFFFFFFFFFFFFFFFFFFFFFFFFFFFFFFFFFFFFFFFFFFFFFFFFFFFF NOT AND SUB PUSH2 0x152 JUMPI PUSH1 0x1 SWAP1 POP PUSH2 0x344 JUMP JUMPDEST PUSH32 0x5600000000000000000000000000000000000000000000000000000000000000 DUP3 PUSH31 0xFFFFFFFFFFFFFFFFFFFFFFFFFFFFFFFFFFFFFFFFFFFFFFFFFFFFFFFFFFFFFF NOT AND SUB PUSH2 0x1A4 JUMPI PUSH1 0x5 SWAP1 POP PUSH2 0x344 JUMP JUMPDEST PUSH32 0x5800000000000000000000000000000000000000000000000000000000000000 DUP3 PUSH31 0xFFFFFFFFFFFFFFFFFFFFFFFFFFFFFFFFFFFFFFFFFFFFFFFFFFFFFFFFFFFFFF NOT AND SUB PUSH2 0x1F6 JUMPI PUSH1 0xA SWAP1 POP PUSH2 0x344 JUMP JUMPDEST PUSH32 0x4C00000000000000000000000000000000000000000000000000000000000000 DUP3 PUSH31 0xFFFFFFFFFFFFFFFFFFFFFFFFFFFFFFFFFFFFFFFFFFFFFFFFFFFFFFFFFFFFFF NOT AND SUB PUSH2 0x248 JUMPI PUSH1 0x32 SWAP1 POP PUSH2 0x344 JUMP JUMPDEST PUSH32 0x4300000000000000000000000000000000000000000000000000000000000000 DUP3 PUSH31 0xFFFFFFFFFFFFFFFFFFFFFFFFFFFFFFFFFFFFFFFFFFFFFFFFFFFFFFFFFFFFFF NOT AND SUB PUSH2 0x29A JUMPI PUSH1 0x64 SWAP1 POP PUSH2 0x344 JUMP JUMPDEST PUSH32 0x4400000000000000000000000000000000000000000000000000000000000000 DUP3 PUSH31 0xFFFFFFFFFFFFFFFFFFFFFFFFFFFFFFFFFFFFFFFFFFFFFFFFFFFFFFFFFFFFFF NOT AND SUB PUSH2 0x2ED JUMPI PUSH2 0x1F4 SWAP1 POP PUSH2 0x344 JUMP JUMPDEST PUSH32 0x4D00000000000000000000000000000000000000000000000000000000000000 DUP3 PUSH31 0xFFFFFFFFFFFFFFFFFFFFFFFFFFFFFFFFFFFFFFFFFFFFFFFFFFFFFFFFFFFFFF NOT AND SUB PUSH2 0x340 JUMPI PUSH2 0x3E8 SWAP1 POP PUSH2 0x344 JUMP JUMPDEST PUSH0 SWAP1 POP JUMPDEST SWAP2 SWAP1 POP JUMP JUMPDEST PUSH0 PUSH1 0x40 MLOAD SWAP1 POP SWAP1 JUMP JUMPDEST PUSH0 PUSH0 REVERT JUMPDEST PUSH0 PUSH0 REVERT JUMPDEST PUSH0 PUSH0 REVERT JUMPDEST PUSH0 PUSH0 REVERT JUMPDEST PUSH0 PUSH1 0x1F NOT PUSH1 0x1F DUP4 ADD AND SWAP1 POP SWAP2 SWAP1 POP JUMP JUMPDEST PUSH32 0x4E487B7100000000000000000000000000000000000000000000000000000000 PUSH0 MSTORE PUSH1 0x41 PUSH1 0x4 MSTORE PUSH1 0x24 PUSH0 REVERT JUMPDEST PUSH2 0x3A8 DUP3 PUSH2 0x362 JUMP JUMPDEST DUP2 ADD DUP2 DUP2 LT PUSH8 0xFFFFFFFFFFFFFFFF DUP3 GT OR ISZERO PUSH2 0x3C7 JUMPI PUSH2 0x3C6 PUSH2 0x372 JUMP JUMPDEST JUMPDEST DUP1 PUSH1 0x40 MSTORE POP POP POP JUMP JUMPDEST PUSH0 PUSH2 0x3D9 PUSH2 0x349 JUMP JUMPDEST SWAP1 POP PUSH2 0x3E5 DUP3 DUP3 PUSH2 0x39F JUMP JUMPDEST SWAP2 SWAP1 POP JUMP JUMPDEST PUSH0 PUSH8 0xFFFFFFFFFFFFFFFF DUP3 GT ISZERO PUSH2 0x404 JUMPI PUSH2 0x403 PUSH2 0x372 JUMP JUMPDEST JUMPDEST PUSH2 0x40D DUP3 PUSH2 0x362 JUMP JUMPDEST SWAP1 POP PUSH1 0x20 DUP2 ADD SWAP1 POP SWAP2 SWAP1 POP JUMP JUMPDEST DUP3 DUP2 DUP4 CALLDATACOPY PUSH0 DUP4 DUP4 ADD MSTORE POP POP POP JUMP JUMPDEST PUSH0 PUSH2 0x43A PUSH2 0x435 DUP5 PUSH2 0x3EA JUMP JUMPDEST PUSH2 0x3D0 JUMP JUMPDEST SWAP1 POP DUP3 DUP2 MSTORE PUSH1 0x20 DUP2 ADD DUP5 DUP5 DUP5 ADD GT ISZERO PUSH2 0x456 JUMPI PUSH2 0x455 PUSH2 0x35E JUMP JUMPDEST JUMPDEST PUSH2 0x461 DUP5 DUP3 DUP6 PUSH2 0x41A JUMP JUMPDEST POP SWAP4 SWAP3 POP POP POP JUMP JUMPDEST PUSH0 DUP3 PUSH1 0x1F DUP4 ADD SLT PUSH2 0x47D JUMPI PUSH2 0x47C PUSH2 0x35A JUMP JUMPDEST JUMPDEST DUP2 CALLDATALOAD PUSH2 0x48D DUP5 DUP3 PUSH1 0x20 DUP7 ADD PUSH2 0x428 JUMP JUMPDEST SWAP2 POP POP SWAP3 SWAP2 POP POP JUMP JUMPDEST PUSH0 PUSH1 0x20 DUP3 DUP5 SUB SLT ISZERO PUSH2 0x4AB JUMPI PUSH2 0x4AA PUSH2 0x352 JUMP JUMPDEST JUMPDEST PUSH0 DUP3 ADD CALLDATALOAD PUSH8 0xFFFFFFFFFFFFFFFF DUP2 GT ISZERO PUSH2 0x4C8 JUMPI PUSH2 0x4C7 PUSH2 0x356 JUMP JUMPDEST JUMPDEST PUSH2 0x4D4 DUP5 DUP3 DUP6 ADD PUSH2 0x469 JUMP JUMPDEST SWAP2 POP POP SWAP3 SWAP2 POP POP JUMP JUMPDEST PUSH0 DUP2 SWAP1 POP SWAP2 SWAP1 POP JUMP JUMPDEST PUSH2 0x4EF DUP2 PUSH2 0x4DD JUMP JUMPDEST DUP3 MSTORE POP POP JUMP JUMPDEST PUSH0 PUSH1 0x20 DUP3 ADD SWAP1 POP PUSH2 0x508 PUSH0 DUP4 ADD DUP5 PUSH2 0x4E6 JUMP JUMPDEST SWAP3 SWAP2 POP POP JUMP JUMPDEST PUSH32 0x4E487B7100000000000000000000000000000000000000000000000000000000 PUSH0 MSTORE PUSH1 0x11 PUSH1 0x4 MSTORE PUSH1 0x24 PUSH0 REVERT JUMPDEST PUSH0 PUSH2 0x545 DUP3 PUSH2 0x4DD JUMP JUMPDEST SWAP2 POP PUSH2 0x550 DUP4 PUSH2 0x4DD JUMP JUMPDEST SWAP3 POP DUP3 DUP3 SUB SWAP1 POP DUP2 DUP2 GT ISZERO PUSH2 0x568 JUMPI PUSH2 0x567 PUSH2 0x50E JUMP JUMPDEST JUMPDEST SWAP3 SWAP2 POP POP JUMP JUMPDEST PUSH32 0x4E487B7100000000000000000000000000000000000000000000000000000000 PUSH0 MSTORE PUSH1 0x32 PUSH1 0x4 MSTORE PUSH1 0x24 PUSH0 REVERT JUMPDEST PUSH0 PUSH2 0x5A5 DUP3 PUSH2 0x4DD JUMP JUMPDEST SWAP2 POP PUSH2 0x5B0 DUP4 PUSH2 0x4DD JUMP JUMPDEST SWAP3 POP DUP3 DUP3 ADD SWAP1 POP DUP1 DUP3 GT ISZERO PUSH2 0x5C8 JUMPI PUSH2 0x5C7 PUSH2 0x50E JUMP JUMPDEST JUMPDEST SWAP3 SWAP2 POP POP JUMP JUMPDEST PUSH0 PUSH2 0x5D8 DUP3 PUSH2 0x4DD JUMP JUMPDEST SWAP2 POP PUSH0 DUP3 SUB PUSH2 0x5EA JUMPI PUSH2 0x5E9 PUSH2 0x50E JUMP JUMPDEST JUMPDEST PUSH1 0x1 DUP3 SUB SWAP1 POP SWAP2 SWAP1 POP JUMP INVALID LOG2 PUSH5 0x6970667358 0x22 SLT KECCAK256 DUP7 PUSH15 0x578EC327CFC0AB7B5CC179B7A14B9A DUP12 0xD3 DUP16 EXTCALL NUMBER DELEGATECALL SHL 0x2E KECCAK256 MULMOD 0x27 0xCD DUP1 PUSH28 0x2164736F6C634300081E003300000000000000000000000000000000 "
		},
		"gasEstimates": {
			"creation": {
				"codeDepositCost": "315800",
				"executionCost": "353",
				"totalCost": "316153"
			},
			"external": {
				"romanToInt(string)": "infinite"
			},
			"internal": {
				"getRomanValue(bytes1)": "262"
			}
		},
		"methodIdentifiers": {
			"romanToInt(string)": "cb159dfe"
		}
	},
	"abi": [
		{
			"inputs": [
				{
					"internalType": "string",
					"name": "s",
					"type": "string"
				}
			],
			"name": "romanToInt",
			"outputs": [
				{
					"internalType": "uint256",
					"name": "",
					"type": "uint256"
				}
			],
			"stateMutability": "pure",
			"type": "function"
		}
	]
}